:020000040800F2
:1040000028E000201D4200087DA90008AD870008B7
:1040100045A900085D4900087DE300080000000094
:104020000000000000000000000000004FC0000879
:10403000074B00080000000001B2000807C100089B
:10404000374200083742000837420008374200086C
:104050003742000837420008FD4D0008374200088B
:104060003742000837420008374200088D4A0008EE
:104070003742000837420008A14A0008AD4A00084C
:10408000374200083742000837420008374200082C
:10409000D5E20008374200083742000837420008DE
:1040A000374200083742000837420008374200080C
:1040B00037420008374200083742000837420008FC
:1040C00037420008374200083742000837420008EC
:1040D00037420008374200083742000837420008DC
:1040E00037420008374200083742000837420008CC
:1040F00037420008374200083742000837420008BC
:1041000037420008374200083742000837420008AB
:10411000374200083742000881C1000837420008D2
:10412000B94A0008C54A0008D14A000837420008C9
:1041300000F002F800F062F80AA090E8000C824457
:104140008344AAF10107DA4501D100F057F8AFF234
:10415000090EBAE80F0013F0010F18BFFB1A43F065
:104160000103184738EC000058EC00000A444FF0F7
:10417000000C10F8013B13F0070408BF10F8014BC6
:104180001D1108BF10F8015B641E05D010F8016B0B
:10419000641E01F8016BF9D113F0080F1EBF10F86F
:1041A000014BAD1C0C1B09D16D1E58BF01F801CB92
:1041B000FAD505E014F8016B01F8016B6D1EF9D515
:1041C0009142D6D37047000000230024002500262A
:1041D000103A28BF78C1FBD8520728BF30C148BF6A
:1041E0000B607047642900F0BF80732900F0A18242
:1041F000002070471FB51FBD10B510BD00F09DFA1F
:104200001146FFF7F7FF0CF0A1F800F0BBFA03B47A
:10421000FFF7F2FF03BC00F0C3FA00000948804733
:1042200009480047FEE7FEE7FEE7FEE7FEE7FEE798
:10423000FEE7FEE7FEE7FEE704480549054A064BB0
:10424000704700007DC100083141000828DA0020D5
:1042500028E0002028DC002028DC0020B2F1200328
:104260000AD5C2F1200320FA02F001FA03F321FA81
:1042700002F140EA0300704721FA03F04FF0000119
:10428000704700000FB41CB5074B06AA7B44694673
:104290000090059800F023FA0020694600F032FAF9
:1042A0001CBC5DF814FB0000750400002DE9F04112
:1042B0000E460446002020622046E168884730B35D
:1042C000252805D0D4E901219047206A401CF2E757
:1042D000E168204600278847050018D0A5F1410075
:1042E000192802D820354FF4006732462946204667
:1042F0002760FFF777FF40B1012804D0F61D26F0B4
:1043000007060836D8E7361DD6E72846DAE7206ADA
:10431000BDE8F08170B50C460546012A05D0287825
:10432000800600D5EA69002302E0012305E05B1C5A
:10433000934202D2E05C0028F9D1A869E618C01ABD
:10434000A861286A184428622846AFF3008004E078
:10435000D5E9012114F8010B9047B442F8D328465F
:10436000AFF3008070BD00002DE9F0410646002447
:1043700010687529314616A510D0AFF300800028CB
:1043800002DA404213A507E031688A0701D512A579
:1043900002E0490704D511A5012401E0AFF3008034
:1043A00000210A2206F1240709E0B0FBF2FCB0FB71
:1043B000F2F302FB1C00303078541846491C0028E8
:1043C000F3D123462A463046BDE8F04100F028B933
:1043D000000000002D0000002B0000002000000065
:1043E000401ECAB210F8011F8A4202D00029F9D13A
:1043F0000020704740EA010310B59B070FD1042A43
:104400000DD310C808C9121F9C42F8D020BA19BA9F
:10441000884201D9012010BD4FF0FF3010BD1AB104
:10442000D30703D0521C07E0002010BD10F8013B59
:1044300011F8014B1B1B07D110F8013B11F8014B80
:104440001B1B01D1921EF1D1184610BD10B5431CA3
:1044500002E010F8011B71B18107FAD14FF001326F
:1044600002C88C1A8C4314EAC211F9D0C01A0A0689
:1044700003D0C01E10BDC01A10BD0A0401D0801E9A
:1044800010BD0902FCD0401E10BD032A40F230804E
:1044900010F0030C00F0158011F8013BBCF1020F85
:1044A000624498BF11F801CB00F8013B38BF11F806
:1044B000013BA2F1040298BF00F801CB38BF00F81D
:1044C000013B11F0030300F02580083AC0F008809A
:1044D00051F8043B083A51F804CBA0E80810F5E77E
:1044E000121D5CBF51F8043B40F8043BAFF3008061
:1044F000D20724BF11F8013B11F801CB48BF11F8D6
:10450000012B24BF00F8013B00F801CB48BF00F8A5
:10451000012B704710B5203AC0F00B80B1E818505D
:10452000203AA0E81850B1E81850A0E81850BFF49D
:10453000F5AF5FEA027C24BFB1E81850A0E818503C
:1045400044BF18C918C0BDE810405FEA827C24BF90
:1045500051F8043B40F8043B08BF7047D20728BF1E
:1045600031F8023B48BF11F8012B28BF20F8023B6D
:1045700048BF00F8012B704702F0FF0343EA032213
:1045800042EA024200F002B84FF000020429C0F0F3
:10459000128010F0030C00F01B80CCF1040CBCF175
:1045A000020F18BF00F8012BA8BF20F8022BA1EBC7
:1045B0000C0100F00DB85FEAC17C24BF00F8012BAC
:1045C00000F8012B48BF00F8012B70474FF00002A4
:1045D00000B5134694469646203922BFA0E80C50F9
:1045E000A0E80C50B1F12001BFF4F7AF090728BFD4
:1045F000A0E80C5048BF0CC05DF804EB890028BF50
:1046000040F8042B08BF704748BF20F8022B11F078
:10461000804F18BF00F8012B7047704770477047F4
:104620002DE9F0470D4699469246044600F12408CC
:104630000168880604D5E06921F01001216000E0DE
:104640000120A84201DD471B00E00027A1697A197B
:1046500002EB0900081AA0612078C00602D42046A7
:10466000AFF30080002608E0D4E901211AF8060023
:104670009047206A401C761C20624E45F4DB20786F
:10468000C0060AD52046AFF3008006E0D4E9012138
:1046900030209047206A401C2062381EA7F1010795
:1046A000F4DC07E0D4E9012118F805009047206AFE
:1046B000401C2062281EA5F10105F3DC2046AFF363
:1046C00000802078000602D50220BDE8F087012096
:1046D000FBE7000001694A1C02610878704700B5D9
:1046E0008FB0CDE901310021059105497944CDE92B
:1046F000031011466846FFF7D9FD0FB000BD00005A
:10470000E5FFFFFF0A6802F8010B0A60704710B569
:10471000436913B1AFF3008001E0FFF7FBFD012017
:1047200010BD127800F124010A7000224A700122A3
:10473000EDE711684FF0FF32E9E7754600F02CF81D
:10474000AE4605006946534620F00700854618B07E
:1047500020B5FFF771FDBDE820404FF000064FF097
:1047600000074FF000084FF0000B21F00701AC46A6
:10477000ACE8C009ACE8C009ACE8C009ACE8C009C5
:104780008D46704710B50446AFF300802046BDE863
:104790001040FFF73CBD000000487047C8D900201A
:1047A00001491820ABBEFEE726000200704700005A
:1047B00070B5044600688168C943C90717D181688C
:1047C00021F00101816001F0DFFC05460AE000BF35
:1047D00001F0DAFC401B022804D920688068C0433D
:1047E000C00706D020688068C043C007F0D0002012
:1047F00070BDA06A40F01000A062E06A40F00100C5
:10480000E062012070BD10B50146406A826A12F074
:10481000500F05D0006A026BBDE8104008461047F3
:10482000816A41F40071816201688968C1F3424183
:1048300007290CD1017B51B9816A21F48071816211
:10484000816AC90403D4816A41F00101816200F0E8
:10485000AFFF10BD10B5406A816A41F0400181622E
:10486000C16A41F00401C16200F0A4FF10BD10B59F
:10487000406A00F09EFF10BDF8B500260446009681
:1048800000688168C943C9072DD0816841F00101E2
:104890008160164816490068B0FBF1F000E0401E48
:1048A00000900028FBD101F06FFC054616E000BF28
:1048B00001F06AFC401B022810D920688068C043C0
:1048C000C0070BD0A06A40F01000A062E06A40F080
:1048D0000100E06284F824600120F8BD206880684F
:1048E000C043C007E4D10020F8BD0000380000201C
:1048F00040420F00052802D2014A42F820107047BA
:10490000BC34002010B5084C606808B100F010F805
:1049100007F06CFE07F0A4FE0023044A04211846A9
:1049200007F0CCFB606010BD0800002021C6000825
:1049300010B5044C6068002803D007F0DCFB0020B1
:10494000606010BD08000020052803D2024A002143
:1049500042F8201070470000BC34002002A108205B
:1049600007F0A4FDFEE70000756E6B6E6F775F6564
:1049700072726F725F4275734661756C74000000ED
:10498000814202D983188B4204D8814204D2114457
:10499000814201D9012070470020704710B54FF4C3
:1049A0009A710E48FFF712FE0E210D48FFF7ECFD3D
:1049B0000B484FF4C8711030FFF708FE07F0AEFC4B
:1049C00002460021084600F00DF807F0A7FC024659
:1049D0000021BDE81040084600F004B8E83100208E
:1049E0001C3300202DE9F04100240A4E15460A2709
:1049F000204636F81010A94209D026F810500AF0C7
:104A00005FFCB5FBF7F5641CE4B2072CF0D3BDE8FE
:104A1000F08100001C33002010B50521B0FBF1F43B
:104A20000AF004FCA04203D2201A0404240CF7D19B
:104A300010BD000070B50D4D00224FF400712846E6
:104A400001F09DFBAC1500222146284601F097FBA2
:104A5000074D01229102284601F091FB01222146D7
:104A6000284601F08CFB002070BD000000100140C2
:104A70000008014001B54FF47A73012269460248EB
:104A800002F07AFF08BD00008436002010B507F060
:104A90007FFDBDE81040014800F0FCBF503500200C
:104AA000014800F0F7BF0000E8350020014800F0A1
:104AB000F1BF000034370020014800F0EBBF0000D8
:104AC00078370020014800F0E5BF0000BC37002027
:104AD000014800F0DFBF00009038002030B590F8AA
:104AE00040500124AC40C56B6C600468636043684F
:104AF000102B036803D099600068C26030BD9A60D3
:104B00000068C16030BD70472DE9F0412126B02713
:104B1000242000F0E1F800250024FF2000F0F8F840
:104B2000641CA4B2B442F8D36D1CADB2BD42F3D341
:104B3000BDE8F04100F00FB92DE9F047814621278B
:104B40004FF0B008242000F0C7F80024002504FB33
:104B500007F600BF09EB0500305C00F0D9F86D1CCA
:104B6000ADB2BD42F6D3641CA4B24445EED3BDE859
:104B7000F04700F0F0B810B500F08EF800F074F8CF
:104B8000122000F0A9F800F06FF8452000F0A4F81A
:104B9000002000F0BDF8002000F0BAF8072000F077
:104BA000B7F8012000F0B4F84F2000F095F800208D
:104BB00000F0AEF8002000F0ABF8112000F08CF807
:104BC000BDE81040032000F0A3B810B500F064F871
:104BD00000F04AF8122000F07FF800F045F81820A5
:104BE00000F07AF8802000F093F8222000F074F8AA
:104BF000B12000F08DF8202000F06EF800F034F8BD
:104C00001A2000F069F8642000F082F8002000F01B
:104C10007FF8452000F060F8002000F079F80020CF
:104C200000F076F8072000F073F8012000F070F82B
:104C30004F2000F051F8002000F06AF8002000F04A
:104C400067F8112000F048F8032000F061F82220F6
:104C500000F042F8912000F05BF8202000F03CF8D2
:104C6000BDE81040AFF3008070B50A4E64244FF4E5
:104C700000752946304601F075FA28B10520FFF786
:104C8000CBFE641EE4B2F4D2BDE870401420FFF7FE
:104C9000C3BE00000008014070B501220D4D140292
:104CA0002146284601F06BFA1420FFF7B5FE0022DA
:104CB0002146284601F063FA0220FFF7ADFE0122EB
:104CC0002146284601F05BFABDE870401420FFF74A
:104CD000A3BE00000008014070B50C4C064600223F
:104CE0004FF40071204601F04AFAA515002229462A
:104CF000204601F044FA3046FFF7BCFE2946204624
:104D0000BDE87040012201F03ABA000000100140F5
:104D100070B50B4C064601225102204601F02FFAD5
:104D2000A51500222946204601F029FA3046FFF752
:104D3000A1FE29462046BDE87040012201F01FBABD
:104D40000010014010B51020FFF7C6FFBDE810406D
:104D50000120FFF7DDBF10B52220FFF7BDFFF720D0
:104D6000FFF7D6FF2020FFF7B7FFBDE81040FFF7A1
:104D70007BBF10B50446002000F01BF83220FFF77F
:104D80004BFE04F14A00FFF7D7FE3220FFF744FE46
:104D9000FFF7E1FF3220FFF73FFEBDE81040AFF321
:104DA000008010B5FFF7CEFFBDE81040C820FFF728
:104DB00033BE10B50446FFF73DFEFFF7DCFE002CC6
:104DC00005D0FFF7A1FEBDE81040FFF7FEBE10BD05
:104DD00010B5082005F05EF900280BD00BF076FA2C
:104DE000002807D0082005F060F9BDE8104002480F
:104DF000FFF7BFBF10BD00008A02002010B504F00D
:104E00007FFABDE81040012001F0A4B802A10A20F9
:104E100007F04CFB72B6FEE7756E6B6E6F775F65E1
:104E200072726F725F48616E646C657200000000A0
:104E300006490020C8610648016941F0040101618A
:104E4000016941F0400101617047000068390020AC
:104E500000200240064A0021D16106490A6942F059
:104E600002020A614861086940F040000861704729
:104E70006839002000200240044B0022DA61044A15
:104E8000136943F001031361018070476839002002
:104E90000020024014480022C168CB06134904D503
:104EA000CA6942F00202CA611022C3685B0705D5D5
:104EB000CB6943F00103CB6142F00402C369DB0715
:104EC00007D0CB6943F00403CB61C16921F0010134
:104ED000C161A2F58071013901D0C2607047C1691A
:104EE00021F00101C16170470020024068390020B3
:104EF00070B5054601F048F90646114C09E0681CFA
:104F000007D025B101F040F9801BA84201D9032048
:104F100070BDE068C007F2D1E068800601D52020AE
:104F2000E060E068C00605D4E069C00702D1E0682F
:104F3000400703D5FFF7AEFF012070BD002070BD14
:104F40000020024010B5114C0F48012120600820BC
:104F5000E06161610020A060022121610721C4E9B4
:104F60000A01E0604FF400712062A16160624FF4B9
:104F700082706060204602F063FB2068016841F0A7
:104F80004001016010BD0000003C0040DC36002004
:104F90000120704730B5424DA1B0E87805F1180402
:104FA000022804D0002084F8280000F031FA94F898
:104FB000280060B101283DD002286ED1296900295E
:104FC0006BD021B03748BDE8304000F079BA05F029
:104FD00021FD05F029F898B1032084F82800152157
:104FE00031A008F079FC05F0DDFC35A1002005F0CA
:104FF00037FD21B037A1BDE83040012005F030BDBC
:10500000E06A2834FFF722FA0146606808F064FC81
:10501000192134A008F060FC05F0C4FC0020616890
:1050200005F01EFD36A1012005F01AFD08202871AB
:10503000207830E0296900292FD0374800F040FA65
:1050400004F0ECFF01462879814226D904F0C8FF1C
:1050500003462A7931A16846FFF714F96846FFF73D
:10506000F5F90146684608F037FC162132A008F031
:1050700033FC05F097FC36A1002005F0F1FC3AA1C5
:10508000012005F0EDFC0648FF2204211430FFF753
:1050900073FA14F8280F401C207021B030BD0000B6
:1050A0006400002069C000086B6579206C61796537
:1050B00072206973206C6F636B65640D0A000000D9
:1050C0006B6579206C61796572206973206C6F6300
:1050D0006B656400466E206B657920746F2065787F
:1050E00069740000496E7075742074686520626F81
:1050F00074746F6E20746F206D61700D0A00000073
:10510000496E7075742074686520626F74746F6E78
:1051100020746F206D61700051C000084368616E9B
:105120006765206269745B25645D20636F646563F5
:105130005B25645D0D0A0000496E7075742074680B
:1051400065206E657720626F74746F6D0D0A0000C4
:10515000496E70757420746865206E657720626F83
:1051600074746F6D000000004E657720626F747478
:105170006F6D3A0070B52E4CA4B02078FF2804D291
:10518000251D95F8280002280CD00B2129A008F035
:10519000A3FB05F007FC24B029A1BDE87040002066
:1051A00005F05EBC224E143E307904F019FF024631
:1051B0006078E378A1788DE80B00237823A103A819
:1051C000FFF760F803A8FFF741F9014603A808F0CC
:1051D00083FB207845281CD160781E2819D3272806
:1051E00017D8A1781E2914D3272912D81D38C2B286
:1051F0001D39C8B20A21B2FBF1F301FB1322B0FB47
:10520000F1F301FB1300A07000EB02102070FF20EF
:1052100060700749307904F061FC17A1002005F0A7
:105220001FFC15F8280F401C287024B070BD00002A
:10523000780000204E6F204368616E67650D0A009C
:105240004E6F204368616E67650000004368616EC1
:1052500067652020636F64655B25645D20746F2043
:10526000636F6465635B25642D25642D25642D259E
:10527000645D0D0A0000000053554343455353003D
:1052800010B5142103A008F027FB0849002081F87D
:10529000380010BD4368616E6765206C6179657286
:1052A0002065786974210D0A000000007C00002050
:1052B0000F4810B50079A0F1130108290CD2C0F1F4
:1052C0001A00C0B204F064FE0A210AA008F004FB30
:1052D00005F068FB0AA106E012210BA008F0FCFA19
:1052E00005F060FB0DA1BDE81040002005F0B8BB43
:1052F0006400002053554343534545210D0A0000E7
:1053000053554343455353004C61796572206E7584
:105310006D206572726F72210D0A00004C61796513
:1053200072206E756D206572726F72210000000030
:105330002D4910B5CA783AB1032815D0012842D1B9
:10534000BDE8104000F064B8012804D00228F7D06E
:10535000032838D104E0254803F01AFF05F02CFBA0
:10536000BDE8104009F048B9487800282BD0C8782B
:10537000062828D2DFE800F02703282C30341A4C06
:105380001834207E50B101281DD1096911B1184887
:1053900000F096F8BDE8104000F058B805F03AFB70
:1053A0000020E16905F05CFB12A1012005F058FB2B
:1053B00013A1012005F0BEFB0EA1012007F076F835
:1053C000207E401C207610BDBDE81040FFF7E2BDF6
:1053D000BDE8104004F0B4B9BDE8104004F032B8A4
:1053E000BDE8104004F062B864000020AD930008EE
:1053F00051C0000870616C6B5F76312E3033000055
:1054000020466E206B657920746F20657869740082
:1054100070B50D4CE07800260D280FD2E07804F12D
:10542000180505EB0010406820B1E07805EB00108E
:1054300040688047E07805EB00100672E670BDE832
:10544000704003F099BE00006400002010B54B20AE
:1054500004F00CFC00280AD0054800792D2806D15C
:1054600006F054F802481830017E491C017610BD40
:1054700064000020704700005422024941F21C00E1
:1054800003F0F8BBD4B800202DE9F0410E460B49DB
:105490001746096891F8232082420CD901EB800558
:1054A00000242435285D002805D03946B047641C07
:1054B000E4B2682CF6D3BDE8F08100004C01002076
:1054C0002DE9F34F83B000260091009850F8260094
:1054D00078B300985FF0000500EB860939F81500F5
:1054E00018B30024700100EB051009EB45084FF0DC
:1054F000800B019018F8040098B10198002700EB88
:10550000C40A00BF18F804102BFA07F0014204D0B7
:105510000AEB07000399C0B288477F1CFFB2082F2F
:10552000F0D3641CE4B2022CE4D36D1CEDB2022D66
:10553000D4D3761CF6B21B2EC7D305B0BDE8F08FCE
:1055400070B505461446104600F032F8002804D025
:1055500021462846FFF7B4FF012070BD0149FFF73F
:10556000AFBF0000883B002070B500200E4C0F49F3
:1055700014250A78B2FBF5F305FB132303EB83062E
:1055800004EB8606367B3EB1401C521CC0B20A704A
:105590001428EED3002070BD03EB830004EB8000E1
:1055A0000121017370BD00002C3300200600002093
:1055B00070B504460020084D024600BF55F8223061
:1055C00051F82260734044F8223000D00120521C70
:1055D000D2B21B2AF2D370BD883B0020F8B500255B
:1055E0000446009590F8240001280BD0012084F88F
:1055F00024002046FFF7DCF82046FFF73DF90600BF
:1056000002D050E00220F8BDA06A20F4885040F09B
:105610000200A062022001F0D1FC25490968B1FB1B
:10562000F0F0400000E0401E00900028FBD1206810
:10563000816841F00801816000F0A6FD074608E09E
:1056400000F0A2FDC01B0A2803D92068806800076B
:1056500015D4206880680007F2D42068816841F082
:105660000401816000F090FD074612E000F08CFD1F
:10567000C01B0A280DD920688068400709D5A06A98
:1056800020F0020040F01000A06284F824500120B5
:10569000F8BD206880684007E8D4A06A20F00200C6
:1056A00040F00100A06284F824503046F8BD0000AC
:1056B00038000020F8B50024009490F824202546F6
:1056C000012A12D0012280F824204A681F23072AC9
:1056D0000DD20668776B521E02EB820293409F4305
:1056E0000B6893401F43776319E00220F8BD0668FA
:1056F0000D2A0AD2376BD21F02EB820293409F43DE
:105700000B6893401F43376309E0F76A0D3A02EBD9
:10571000820293409F430B6893401F43F7620A68DD
:10572000072306680A2A0AD3F7680A3A02EB4202FC
:1057300093409F438B6893401F43F76008E03769AD
:1057400002EB420293409F438B6893401F433761B3
:105750000A68102A01D0112A20D1124B02689A42FD
:1057600017D193681B0219D4936843F40003936024
:105770000968102912D10C490C4A0968B1FBF2F1F1
:1057800001EB8101490000E0491E00910029FBD195
:1057900004E0816A41F020018162012480F82450F4
:1057A0002046F8BD002401403800002040420F0090
:1057B00070477047704700002DE9F04104004FF03A
:1057C00000057FD0A06A002628B9E66284F824602C
:1057D000204600F081F82046FEF7EAFFA16AC906DC
:1057E00000D420B1A06A40F01000A0626AE0A16A73
:1057F00021F4885141F00201A162334923688B42B0
:10580000E16904D1B1F5402F01D14FF40021277B8C
:105810004FF4807C41EA470261680A43A168614510
:1058200008D0012906D0002194F814E0BEF1010F40
:1058300002D00AE06146F7E7C7B1A76A47F0200740
:10584000A762E76A47F00107E7625F6827F46947E4
:105850000F435F60236899681C4F3940114399607A
:10586000A16861450BD0012909D00CE0DFF860E0A8
:10587000A7690EEB47370F4347F40061E5E7218A3C
:105880000D05A5F580152168CB6A23F470032B4321
:10589000CB62216889680F4B1940914208D1E662BA
:1058A000A16A21F0020141F00101A162BDE8F0818D
:1058B000A06A20F0020040F01000A062E06A40F010
:1058C0000100E0620120F1E7003C0140FDF7E1FF4B
:1058D00000E0FFFFFE0E1FFF70B586B000250646F4
:1058E00000950195029503950068214988423DD1B4
:1058F0002049886940F400708861886900F400706C
:105900000490886940F010008861886900F01000F8
:105910000490886940F0080088618869032400F0D9
:10592000080004900B20CDE900046946124800F0FD
:105930001DFB009469461148019400F017FB114CBF
:105940000F48C4E900058020C4E9025040002061EE
:105950008000C4E905052046E56100F0BFF908B103
:10596000FFF754FA3462666206F040FE06B070BD7E
:10597000002401400010024000100140000C0140D2
:1059800008000240503500202DE9F04789460446C2
:105990003B4900683B4F0E1D9046884201D0B842FB
:1059A00007D1306810F4702F03D001252846BDE8D8
:1059B000F08794F8240001280CD0012084F82400FA
:1059C0002046FEF759FF05004FF0000004D084F890
:1059D0002400EBE70220EAE7A16A40F60162914366
:1059E00041F48071A1622168B94218D1326812F481
:1059F000702F14D0A16A41F48011A1623168490569
:105A000005D5A16A21F4005141F48051A162A16A37
:105A1000C9040AD5E16A21F00601E16206E0A26A42
:105A200022F48012A2624968E9E7E06284F8240067
:105A3000216A15488862216A1448C862216A14489C
:105A4000086321686FF0020008602068816841F4F3
:105A500080718160216843464A464C31206A00F0DB
:105A60007BF920688168C1F342410729816803D02E
:105A700041F48011816099E741F4A001FAE7000048
:105A80000024014000280140074800086F48000832
:105A9000554800082DE9F05FC16B0A6801680B6882
:105AA000046C4FF0040808FA04F8844D844E854FC6
:105AB000DFF814C2DFF81492DFF814A2DFF814B292
:105AC000DFF814E218EA020F65D05FEA437862D586
:105AD0000A68920603D40A6822F004020A60DFF81A
:105AE000F0814FF48062016808F114081301140278
:105AF000414524D9A9420DD0B1420FD0B9421AD0A4
:105B0000614515D0494515D0514501D1120312E028
:105B1000594501D104220EE0714501D140220AE02D
:105B20006D4D1435A94206D06B4A2832914201D1FD
:105B30001A4600E022466749091F0A6029E0A94287
:105B400013D0B14215D0B94220D061451BD0494590
:105B50001BD0514502D14FF4800217E0414502D1DC
:105B60004FF0806212E0594501D104220EE07145E8
:105B700001D140220AE0584D1435A94206D0564AB8
:105B80002832914201D11A4600E022464B49083999
:105B90004A60C16A71E04FF0020808FA04F818EA96
:105BA000020F70D05FEA83786DD50A68920606D43A
:105BB0000A6822F00A020A60012180F82110DFF849
:105BC00010814FF40072016808F1140813011402E7
:105BD000414524D9A9420DD0B1420FD0B9421AD0C3
:105BE000614515D0494515D0514501D1120312E048
:105BF000594501D102220EE0714501D120220AE06F
:105C0000354D1435A94206D0334A2832914201D18C
:105C10001A4600E022462F49091F0A6029E0A942DE
:105C200013D0B14215D0B94220D061451BD04945AF
:105C30001BD0514502D14FF4001217E0414502D16B
:105C40004FF0007212E0594501D102220EE0714579
:105C500001D120220AE0204D1435A94206D01E4A67
:105C60002832914201D11A4600E0224613490839F0
:105C70004A60002180F82010816A00291CD0BDE80C
:105C8000F05F0847FFE70825A540154214D01A0722
:105C900012D50A6822F00E020A6090F84020C36B09
:105CA000012101FA02F25A60816380F8211000217B
:105CB00080F82010016BE0E7BDE8F09F080002408B
:105CC0001C000240300002404400024058000240E4
:105CD0006C000240080402401C04024030B560B170
:105CE0001A4B026814219A4209D2194B1344B3FB90
:105CF000F1F18900016417490AE0012030BD134B1E
:105D00005B421344B3FBF1F1890001640F49083988
:105D1000C163022180F82110136843F6F0718B43B0
:105D2000F0E901142143D0E902452C4321430469E1
:105D300021434469214384692143194311600021AF
:105D40004163012242770177084630BD08040240D2
:105D5000F8FFFDBF0000024070B5044690F8200037
:105D6000002501280CD0012084F8200094F821603F
:105D70000020012E06D084F820000225284670BDA0
:105D8000022070BD022684F82160A06320680668A6
:105D900026F0010606602046FEF7A0FEE06A002815
:105DA0002068016802D041F00E0106E021F00401F4
:105DB00001602068016841F00A0101602068016803
:105DC00041F001010160D9E770B5044600F0DCF94B
:105DD0000546601C02D004480078044400F0D4F961
:105DE000401BA042FAD370BD2C0000202DE9F047E3
:105DF000054626480F460126017E01290FD00121C4
:105E0000814601762868DFF888804CF250340228F9
:105E100008D0A2462046FFF76BF8A8B131E0022077
:105E2000BDE8F0872046FFF763F808BB0120FEF7C6
:105E3000FFFF2046FFF75CF8D8F81010064621F067
:105E40000401C8F810101CE04FF0FF303860AC6857
:105E500011E02046FEF7FEFF5046FFF749F8D8F85C
:105E60001010060021F00201C8F8101001D03C60AB
:105E700007E004F50064D5E9020100EBC120A0426F
:105E8000E7D8002189F818103046C9E768390020A2
:105E9000002002400348016941F0800101610020B7
:105EA00070470000002002402DE9F05F07461C48C3
:105EB00088460024017E15461E46012909D001218D
:105EC000814601764CF2503A5046FFF711F818B16E
:105ED00022E00220BDE8F09F012F02D0022F00D067
:105EE0000427D346DFF83CA0220128463146FEF7BE
:105EF000B5F981B208EB4400FEF7BEFF5846FEF745
:105F0000F7FFDAF8102022F00102CAF8102018B9C1
:105F1000641CE4B2BC42E7D3002289F81820D9E718
:105F20006839002000200240064900200A69120654
:105F300007D5054A4A60054A4A600969090600D53D
:105F4000012070470020024023016745AB89EFCD57
:105F500070470000044910B50A68024202D0086088
:105F6000FFF7F6FF10BD0000140401402DE9F84FC3
:105F7000DFF8C8910024A9F1040B23460F2709F18B
:105F8000040AABF1040ED1E00125A54006EA0502A2
:105F9000AA4276D1DFF8A8C14E68A6EB0C08664588
:105FA0002BD00DDC032E34D005DC36B3012E19D0F6
:105FB000022E2FD11BE0112E16D0122E2AD119E05D
:105FC000B8F5881F19D006DCB8F5803F15D0B8F5B4
:105FD000801F1FD111E0B8F5001F0ED0B8F5041FC7
:105FE00018D10AE0CB6815E0CB681B1D12E0CB6826
:105FF00008330FE0CB680C330CE08B682BB1012B1E
:106000004FF0080303D0456104E0042302E005617A
:1060100000E00023FF2A01D8064601E000F1040653
:106020004FEA840501D9A5F12005D6F8008007FACA
:1060300005FC28EA0C0803FA05F548EA0508C6F845
:1060400000804D68ED0070D53E4DAE6946F001060A
:10605000AE61AD6924F0030605F0010500953A4DE7
:1060600006EB050CDCF80850A607360F07FA06F811
:1060700025EA0805DFF8D480404503D14FF0000839
:1060800025E052E0DFF8C880404502D14FF001081A
:106090001DE0DFF8C080404502D14FF0020816E055
:1060A000DFF8B480404502D14FF003080FE0DFF87D
:1060B000AC80404502D14FF0040808E0DFF8A08032
:1060C000404502D14FF0050801E04FF0060808FAFC
:1060D00006F848EA0508CCF808804D68D9F8006051
:1060E000ED024D4601D5164300E096432E604D6803
:1060F000DAF80060AD02554601D5164300E096433C
:106100002E604D68DBF80060AD035D4601D5164397
:1061100000E096432E604D68DEF80060ED037546A2
:1061200001D5164300E096432E60641C0A681646AB
:10613000E2407FF429AFBDE8F88F00000804014079
:106140000000111000100240000001400008014052
:10615000000C0140001001400014014000180140F3
:10616000001C01408068084000D001207047C268D0
:1061700021EA02030A4043EA0241016170470AB181
:10618000016170470904FBE701488068704700001F
:106190002C00002070B5040025D094F83D000025A7
:1061A00020B984F83C50204600F050F9242084F8AF
:1061B0003D002068016821F001010160206801684C
:1061C00041F4004101602068016821F40041016050
:1061D00001F05CF84D4A6168914201D84C4900E0F9
:1061E0004C49884201D2012070BD4B492368B0FB65
:1061F000F1F15E6826F03F060E435E6063689342ED
:1062000006D94FF4967359434FF47A73B1FBF3F107
:106210002368491C1E6A26F03F06314319626168F3
:10622000914210D84900401EB0FBF1F2521CC2F35B
:106230000B02042A01D2042022E0B0FBF1F0401C42
:10624000C0F30B001CE0A268F2B301EBC10303EB47
:106250000116431EB3FBF6F35B1C43F480431B059E
:1062600049D092B301EBC10202EB0111401EB0FB19
:10627000F1F0401CC0F30B0040F4804040F40040BB
:106280002168CA694CF6FF739A431043C861D4E988
:10629000071001432068026822F0C0021143016028
:1062A000D4E9030101432068826848F2FF339A432E
:1062B00011438160D4E9050108432168CA6822F0CE
:1062C000FF021043C86001E00EE016E0206801689C
:1062D00041F0010101602564202084F83D00256320
:1062E00084F83E50002070BD01EB4106431EB3FB15
:1062F000F6F35B1CB3E70120C2E701EB4101401E4E
:10630000B0FBF1F0401CC0F30B00B7E7A086010022
:1063100080841E0000093D0040420F002DE9FF4F20
:1063200083B09A46DDE9119793460446DDF8408034
:10633000FFF72AFF054694F83D0020287FD1192356
:10634000012240492046009502F0DAFA002876D171
:1063500094F83C00012872D0012084F83C002068A9
:106360000168C90703D1016841F00101016020689B
:10637000016821F400610160212084F83D00402083
:1063800084F83E0000262664C4F82480A4F82A90ED
:10639000608D20852C48E062CDE9007553465A4651
:1063A0002046049902F02CFA70B930E02A463946AA
:1063B000204602F04BFB58B1206C042804D1206821
:1063C000016841F400710160012007B0BDE8F08F61
:1063D000606A216800780861606A401C6062218DF3
:1063E000491E89B22185628D521E628522685369D9
:1063F000DB435B070BD469B100781061606A401C15
:106400006062208D401E2085608D401E6085208D3D
:106410000028CBD12A463946204602F045FA00280A
:10642000CAD154F83D0B016841F40071016020208D
:1064300004F81E09E67766770020C6E7FFE702202A
:10644000C3E70000020010000000FFFF70B586B037
:1064500000250646009501950295039500681A49A6
:1064600088422FD1194CA06940F00800A061A069B2
:10647000694600F0080004904FF44060009012203C
:106480000190032003901248FFF770FDE06940F48B
:106490008000E061E069104C00F4800004900D4839
:1064A00020601020C4E901058020C4E9030565616E
:1064B000A5612046E561FFF711FC08B1FEF7A6FCD7
:1064C0007463666206B070BD005800400010024060
:1064D000000C014044000240E83500200248816879
:1064E00002781144816070472C000020074810B5E5
:1064F000016841F010010160032000F075F80F20E1
:1065000000F006F800F024F8002010BD0020024042
:1065100070B50D4D04464FF47A712878B1FBF0F058
:106520000A490968B1FBF0F001F0C8FC48B9102C29
:1065300007D200222146501E00F036F800206C6081
:1065400070BD012070BD00002C000020380000202C
:106550000C4808B5816941F001018161816901F050
:1065600001010091C16941F08051C161C06900F031
:10657000805000900448416821F0E06141F00071D2
:10658000416008BD0010024000000140002809DB06
:1065900000F01F02012191404009800000F1E0203D
:1065A000C0F8001170470000F0B40E4B1B680C4699
:1065B000C3F30223C3F10705042D00D90425191DD7
:1065C000072901D2002300E0DB1E012606FA05F1AF
:1065D000491E214099409E40761E16403143F0BC32
:1065E00008F024B80CED00E0064900F00702086846
:1065F0004FF6FF03184040EA0220034A10430860A8
:10660000704700000CED00E00000FA0510B50C0624
:1066100007D501F0070101EB810100EBC100283033
:1066200005E001EB810100EBC10000F5B47099B207
:1066300032B1012202730181190C4181002010BD89
:1066400000220273C180F9E7704701EB810200EB81
:10665000C202D0F8EC02D26B06F0A9BC01EB8102B9
:1066600000EBC202D0F8EC02D2F87C2106F002BDA9
:1066700070B504460B0601F0070000EB800104EB47
:10668000C1014FF001024FF0000503D581F8292028
:10669000283103E081F8695101F5B471087094F86C
:1066A000A802012808D084F8A822206807F08EFAF2
:1066B00084F8A852002070BD022070BD70B5044659
:1066C00001F00F006268904201D9012070BD0B06F5
:1066D00001F0070000EB800104EBC1014FF0010263
:1066E0004FF0000503D581F82920283103E081F817
:1066F000695101F5B4718D70087094F8A8020128F1
:1067000008D084F8A822206807F0FDFA84F8A8527F
:10671000002070BD022070BD2DE9F05F04685FEAC3
:10672000424C0B788D69B4F850C04FF000064BF620
:106730008F7948F2800A48F68F7B48F2C00E4FF4FA
:1067400080672AD54FF0020808EBC308C44407EB62
:106750004C07E45BC4F30904A54203D32D1B8D61F0
:1067600001D00BE08E61066836F8235005EA090572
:1067700085F4005545EA0A0526F82350520609D546
:106780000D78036833F8252002EA0B0242EA0E0274
:1067900023F8252084B30A8929E04FF0060808EB86
:1067A000C308C44407EB4C07E45BC4F30904A542E7
:1067B00003D32D1B8D6101D00BE08E61066836F886
:1067C000235005EA090585F4005545EA0A0526F82F
:1067D0002350520609D40B78056835F8232002EAC5
:1067E0000B0242EA0E0225F823202CB14A8949699E
:1067F0000068234607F082FD2046BDE8F09F2DE9A2
:10680000F05F054600680C465FEA426C16468B69ED
:106810002278B0F850C048F68F774CF280094FF4D8
:10682000004B4FF6FF7E4FF4806A4FF0000172D5A7
:106830004FF0020808EBC208E0440AEB480C30F8BD
:106840000C00C0F30900834211D91B1AA3610FD0B9
:10685000730407D52E6836F822303B4043EA09031B
:1068600026F8223094F82420012A47D052E1A16171
:10687000607810B1012813D01AE02868B0F85030C1
:10688000184400EB0210B0F80424C2F30902A0F887
:106890000424B0F8042442F40042A0F8042407E0E1
:1068A0002868B0F85030184400EB0210A0F8041427
:1068B0006278286812B1012A11D018E0B0F850109F
:1068C0000844217800EB0110B0F80C14C1F3090161
:1068D000A0F80C14B0F80C1441F4004105E0B0F835
:1068E00050201044227800EB0210A0F80C142178FC
:1068F0002846FFF7AAFE700472D40BE162690244D5
:106900006261E2690244E2612369226A9A4203D326
:106910001846111A04E03EE084F824100AB110462B
:106920002162617811B1012929D031E02968B1F8DB
:1069300050201144227801EB0211B1F80424C2F373
:106940000902A1F8042401F204413E2807D94209B2
:10695000C30600D1521E0B884BEA822207E048B1E1
:106960004208C30700D0521C0B880EEA8222134350
:106970000B800DE00A8842F400420A8008E0296892
:10698000B1F850201144227801EB0211A1F804045F
:1069900083B22289BAE04FF0060808EBC208E0444F
:1069A0000AEB480C30F80C00C0F30900834211D305
:1069B0001B1AA3610FD0730407D42E6836F8223057
:1069C0003B4043EA090326F8223094F82420012AA8
:1069D00051D09FE0A161607818B1012814D01BE06C
:1069E0003FE02868B0F85030184400EB0210B0F8CF
:1069F0000424C2F30902A0F80424B0F8042442F4E9
:106A00000042A0F8042407E02868B0F85030184489
:106A100000EB0210A0F804146278286812B1012A71
:106A200011D018E0B0F850100844217800EB0110A4
:106A3000B0F80C14C1F30901A0F80C14B0F80C1450
:106A400041F4004105E0B0F850201044227800EBFA
:106A50000210A0F80C1421782846FFF7F6FD700408
:106A600058D42278296831F82200384040EA0900D9
:106A700021F822004EE0626902446261E269024448
:106A8000E2612369226A9A4203D31846111A2162ED
:106A900004E00AB11046216284F824106278296863
:106AA00012B1012A28D02FE0B1F8502011442278E9
:106AB00001EB0211B1F80C24C2F30902A1F80C2475
:106AC00001F20C413E2807D94209C30600D1521EEB
:106AD0000B884BEA822207E048B14208C30700D086
:106AE000521C0B880EEA822213430B800CE00A88AA
:106AF00042F400420A8007E0B1F8502011442278A5
:106B000001EB0211A1F80C04628983B26169286863
:106B100007F012FC2278296831F8220048F6BF738A
:106B2000184080F0300048F28003184321F822001A
:106B30000020BDE8F09F10B5044690F8A802012897
:106B40000AD0012084F8A802080607D501F0070141
:106B5000206807F0A9FB04E0022010BD206807F0C0
:106B6000A1FB002084F8A80210BD01F0070101EB91
:106B7000810100EBC100D0F8840170472DE9F0419C
:106B800004460F0601F0070000EB800104EBC10191
:106B90004FF001064FF0000503D581F82960283138
:106BA00003E081F8695101F5B471022B08700A61A4
:106BB000CB7000D10D7194F8A802012809D084F897
:106BC000A862206806F0B2FE284684F8A852BDE804
:106BD000F0810220FBE710B501F0070404EB84010B
:106BE00000EBC101C1E95F230022C1F8842181F8D3
:106BF000692181F86841006801F5B47107F0D8F89F
:106C0000002010BD70B504460D4601F00700616814
:106C1000884201D9012070BD29064FF000064FF0CF
:106C2000010207D500EB800104EBC10181F82920A6
:106C3000283107E005EB850104EBC10181F86961AA
:106C400001F5B4718A70087094F8A802012807D081
:106C500084F8A822206807F092F8680702D006E0BE
:106C6000022070BD04F52C71206807F04AF884F802
:106C7000A862002070BD10B501F0070404EB840188
:106C800000EBC101C1E90F23012281F84C208B6484
:106C900000234B6481F8292001F8284F006807F091
:106CA00087F8002010BD00001FB50446006807F0FB
:106CB00021FB010403D5204604F0CCF81FBD41059B
:106CC0000DD5206830F8441F21F4806101802046F2
:106CD00000F010F90021204600F027F91FBD410403
:106CE00005D5206830F8441F21F4804174E0810408
:106CF00005D5206830F8441F21F400516CE0C10430
:106D000014D5206830F8401F21F00401018020686C
:106D100030F8401F21F008010180204600F0FDF806
:106D2000206830F8441F21F4805155E0010540D51A
:106D3000D4F800200020694632F8203021F81030C5
:106D4000401CC0B20828F7D332F8400F40F00100D1
:106D50001080206830F8402F22F001020280206865
:106D6000B0F844205205FBD530F8442F22F480625D
:106D700002800020236831F8102023F82020401CD6
:106D8000C0B20828F6D3206830F8401F41F008014F
:106D90000180206830F8441F21F4006101802068E0
:106DA00030F8401F41F004010180204600F0F2F865
:106DB0001FBD810509D5206830F8441F21F40071FA
:106DC0000180204600F0ADF81FBDC005FCD520684D
:106DD00030F8441F21F4807101801FBD2DE9F0417E
:106DE00086B0040004D094F8A902002520B108E080
:106DF000012006B0BDE8F08184F8A852204600F0DA
:106E00005BF8032084F8A902206806F073FF04F100
:106E10001001142288466846FDF77CFB94E80F00B9
:106E200006F0D2FE0227D0BB0021206807F07CFAD2
:106E3000002001260EE000BF00EB800104EBC10141
:106E400081F8296001F8280F401CCD700D614D615B
:106E5000C0B28D6161688142EED8002012E000BFAF
:106E600000EB800104EBC10181F8695181F86801F0
:106E700081F86B51C1F87851C1F87C51401CC0B207
:106E8000C1F8805161688142EAD8142241466846BF
:106E9000FDF740FB94E80F0006F023FF10B184F8E3
:106EA000A972A5E784F8245084F8A962206806F046
:106EB00016FF00209DE7000008B500680B498842D6
:106EC00012D10B48C16941F40001C161C0690022BF
:106ED00000F40000009011461420FFF765FBBDE8A8
:106EE00008401420FFF752BB08BD0000005C0040C2
:106EF0000010024070B5044680680125022801D0C8
:106F0000FDF784FF2946D4F8EC0206F09CF9D4F88A
:106F1000EC02BDE8704006F058B9D0F8EC0206F07B
:106F20007CB9D0F8EC0206F082B910B5044690F8AE
:106F3000A80201280BD0012084F8A80284F82410AC
:106F4000206807F0F3F9002084F8A80210BD0220A1
:106F500010BDD0F8EC2200F52C71104606F07FB978
:106F600010B5044690F8A802012810D0012084F83A
:106F7000A802206807F08DF901212046FFF764FB85
:106F8000206806F0AAFE002084F8A80210BD0220A6
:106F900010BD000010B50446D0F8EC0206F09EF9D2
:106FA00006F0AEF9A069002804D00348016841F05A
:106FB0000601016010BD000010ED00E010B50146B3
:106FC0000020284C04292FD00BDC012930D00229C5
:106FD00029D100F06BF96168C1F38131491C490086
:106FE0001FE0082920D010291DD161682268D20134
:106FF00019D51D48C1F38342C903805C0AD5616875
:10700000194AC1F34041921E515C184AB2FBF1F19A
:10701000484301E0164948436168490203D44000EF
:107020000321B0FBF1F010BDBDE8104000F04EB9F7
:10703000226AC2F30121012903D1920701D5C803B5
:1070400010BD022905D1626A920702D549F6404077
:1070500010BD0329FCD121688903F9D54FF22440E2
:1070600010BD0000001002403A24010800127A000E
:1070700000093D002DE9F84305460078354CC0076E
:1070800054D0E0690026C00008D4E06940F0805088
:10709000E061E069012600F0805000902E48016810
:1070A000C90512D40168804641F480710160FFF780
:1070B0006BF8074605E000BFFFF766F8C01B6428C1
:1070C00023D8D8F80000C005F6D5206A10F4407027
:1070D00021D0A98801F4407181421CD0206A1F4947
:1070E000012220F440700A6000220A602062C0077A
:1070F00011D0FFF749F8074641F2883808E000BF91
:10710000FFF742F8C11B414502D90320BDE8F883CF
:10711000206A8007F4D5206A696820F4407008432B
:1071200020621EB1E06920F08050E061287880077D
:1071300005D56068A96820F440400843606028785D
:10714000C00605D56068696920F480000843606066
:107150000020DBE700100240007000404004424283
:107160002DE9F0470F46050061D0434E306800F02E
:107170000700B84209D2306820F007003843306079
:10718000306800F00700B84251D128683B4C8107B5
:1071900012D5400703D5606840F4E060606028784D
:1071A000000703D5606840F4605060606068A968BB
:1071B00020F0F000084360602878C00728D0686895
:1071C000012810D02168022810D0890700292EDA62
:1071D000616821F0030101436160FEF7D5FF80463D
:1071E00041F288390DE021688903EFE78901EDE775
:1071F000FEF7CAFFA0EB0801494502D90320BDE80C
:10720000F0876068696800F00C00B0EB810FEFD187
:10721000306800F00700B8420BD9306820F0070052
:1072200038433060306800F00700B84201D00120D8
:10723000E5E72878400705D56068E96820F4E06054
:10724000084360602878000706D56068296920F443
:10725000605040EAC100606000F038F86168084A98
:10726000C1F30311515CC840064908600648006834
:10727000FFF74EF90020C2E7002002400010024054
:107280004A24010838000020300000200448054945
:1072900000684968044AC1F30221515CC840704744
:1072A00038000020001002405A2401080448054913
:1072B00000684968044AC1F3C221515CC840704764
:1072C00038000020001002405A2401080E4A51687C
:1072D0000E4801F00C03042B11D0082B0FD10C48E1
:1072E000C1F38343C903C05C0AD55168084AC1F39E
:1072F0004041921E515C054A5043B0FBF1F070478B
:1073000004494843704700000010024000127A0010
:107310002824010800093D002DE9F84F040070D031
:107320002078C04DC00749D06868C0F381000128AB
:1073300007D06868C0F38100022809D16868C003DB
:1073400006D52868800339D560680028E7D035E085
:107350006068B0F5803F0BD010B1B0F5A02F11D010
:10736000286820F480302860286820F4802002E01B
:10737000286840F480302860606890B1FEF704FF10
:1073800006460AE0286840F480202860F0E700BF45
:10739000FEF7FAFE801B642873D828688003F7D5AF
:1073A0000CE0FEF7F1FE064605E000BFFEF7ECFE3E
:1073B000801B6428F0D828688003F7D420789A4E80
:1073C00080074FF001094FF0000839D5686810F0C8
:1073D0000C0F07D06868C0F38100022809D16868E3
:1073E000C00306D42868800714D52069012808D175
:1073F00010E02069B0B1C6F80090FEF7C5FE074660
:1074000005E00AE1FEF7C0FEC01B0228C4D82868C8
:107410008007F7D52868616920F0F80040EAC100CC
:1074200028600DE0C6F80080FEF7AEFE074604E0D7
:10743000FEF7AAFEC01B022823D828688007F7D4CD
:10744000207800072CD57948A169D9B1C0F80090FF
:10745000FEF79AFE074604E0FEF796FEC01B0228E0
:107460000FD8686A8007F7D571484FF4FA51006861
:10747000B0FBF1F0009000BF0098411E0091FAD2DD
:107480000EE080E0C0F80080FEF77EFE074604E0D4
:10749000FEF77AFEC01B022875D8686A8007F7D409
:1074A0002078400760D5E8690027C00008D4E86963
:1074B00040F08050E861E869012700F080500090BA
:1074C0005C480168C90513D40168834641F48071A2
:1074D0000160FEF759FE824606E000BFFEF754FE4B
:1074E000A0EB0A0064284ED8DBF80000C005F5D5F3
:1074F000E06801280AD008B1052813D0286A20F0D6
:1075000001002862286A20F0040002E0286A40F0A6
:1075100001002862E06841F2883B98B1FEF734FE32
:1075200082460BE0286A40F004002862EEE700BFC4
:10753000FEF72AFEA0EB0A0159455AD8286A8007AF
:10754000F6D50CE0FEF720FE824605E0FEF71CFEB5
:10755000A0EB0A0159454CD8286A8007F6D41FB120
:10756000E86920F08050E861E06988B36968C1F398
:107570008101022944D00228C6F8608004D0FEF7B9
:1075800003FE044638E034E0FEF7FEFD074604E063
:10759000FEF7FAFDC01B02282BD828688001F7D41B
:1075A000206AB0F5803F05D16868A16820F40030FA
:1075B00008436860D4E908010843696821F474113C
:1075C00008436860C6F86090FEF7DEFD044606E0FA
:1075D00025E000BFFEF7D8FD001B022809D8286867
:1075E0008001F7D51BE000BFFEF7CEFD001B02288F
:1075F00002D90320BDE8F88F28688001F4D40EE09A
:107600000128F7D06868226A00F48031914204D1E1
:10761000616A00F47010884201D00120EAE700207E
:10762000E8E70000001002400000424280044242AD
:107630003800002000700040704790F851007047FB
:1076400070B5040009D0606A002540B1256165610C
:10765000A56294F8510040B10CE0012070BD606853
:10766000B0F5827FF4D0E561F2E784F8505020460F
:1076700000F040F8022084F851002068016821F0F1
:1076800040010160A088218900F4827001F4044166
:107690000843A18901F400610843217C01F0020143
:1076A0000843217D01F001010843218B01F40071A1
:1076B0000843217F01F03801084394F8201001F0BD
:1076C00080010843218D01F40051084321680860BE
:1076D000A069042101EA1040216848602068C1695E
:1076E00021F40061C1616565012084F8510000202A
:1076F00070BD00002DE9F04385B000240094019492
:10770000029403940646574D03685748022103220A
:10771000AB4223D1836943F480538361836903F4CB
:1077200080530493836943F00403836180694F4D60
:1077300000F0040004902020CDE900010392694686
:107740002846FEF713FC4020CDE900046946284690
:107750000294FEF70BFC05B0BDE8F083DFF810C122
:10776000444D10274FF0800963452FD1C36943F47E
:107770008043C361C36903F480430493836943F086
:10778000080383618069039200F0080004904FF4BD
:107790002040CDE9000169462846FEF7E7FBB80224
:1077A000CDE90004694628460294FEF7DFFB334D1D
:1077B00031482860C5E90174C5E903946C61AC6186
:1077C0002846EC6147E0B5646E62C4E7DFF8B0C0FC
:1077D0006345C0D1C36943F40043C361C36903F483
:1077E00000430493836943F0080383618069039233
:1077F00000F0080004902820CDE9000169462846E1
:10780000FEF7B4FBCDE90074B846694628460294F9
:10781000FEF7ACFB194D1B4844354F46C5E9000443
:10782000C5E902492C616C61AC612846EC61FEF748
:1078300055FA08B1FDF7EAFAF5646E620F4D11488A
:1078400088351430C5E902472C616C61AC61EC618C
:10785000C5E900082846FEF741FA0028B3D0FDF735
:10786000D5FAB0E7003001400010024000080140A6
:1078700000380040000C014058000240343700201E
:10788000003C0040080402402DE9F041044690F815
:10789000510000263546012801D002265FE0A0688D
:1078A000042318B96768B7F5827F16D094F8507032
:1078B000012F1BD0012784F85070D1B1CAB184F8D0
:1078C00051306565A163A287E28725646564A5865A
:1078D000E586B0F5004F0ED017E084F85130204611
:1078E000BDE8F04113460A4600F0F4B90220BDE8B5
:1078F000F081012633E02068016821F04001016039
:107900002068016821F480410160E16C1648C8627A
:10791000E16C16488862E16C15480863E06C4563C9
:10792000E38F2168A26B0C31E06CFEF715FA20B1F1
:10793000606D40F010006065DBE720680168490673
:1079400003D4016841F0400101602068416841F0C2
:10795000200141602068416841F00101416084F8E4
:1079600050503046C3E7000043BD000861BD000829
:1079700021BD0008704770472DE9F84F044690F884
:1079800050000026984615468A4601280CD001274B
:1079900084F85070FEF7F8FB814694F85100B34626
:1079A000012804D002269AE00220BDE8F88FBAF13F
:1079B000000F6FD0002D6DD0032084F85100C4F863
:1079C00054B0C4F830A0A586E586C4F838B0A4F851
:1079D0003CB0A4F83EB0C4F844B0C4F840B0A068CD
:1079E000B0F5004F09D12068016821F04001016025
:1079F0002068016841F480410160206801684906FF
:107A000003D4016841F040010160E068B0F5006F07
:107A1000606803D058B3012D29D049E008B1012D89
:107A20001FD1206B21680088C86006E0206881684B
:107A3000890709D5216B0988C160206B801C2063F0
:107A4000E08E401EE0860CE0FEF79EFBA0EB0901F5
:107A5000414503D3B8F1FF3F03D006E0B8F1000F72
:107A600003D0E08E0028E1D125E0032635E0206B2D
:107A700021680078087306E02068816889070AD5C4
:107A8000216B09780173206B401C2063E08E401E3F
:107A9000E0860DE01FE0FEF777FBA0EB0901414512
:107AA00003D3B8F1FF3F03D0DFE7B8F1000FDCD01C
:107AB000E08E0028E0D14A464146204604F012FA02
:107AC00008B120206065A06818B92068C168806886
:107AD0000090606D08B1012601E084F8517084F8CF
:107AE00050B0304661E72DE9FF4F81B0044690F871
:107AF000500000260E9F1D4693464FF001090128B5
:107B00000FD04FF0010A84F850A0FEF73DFB8046ED
:107B100094F85100616801280DD0B1F5827F08D139
:107B200003E0022005B0BDE8F08FA16809B9042880
:107B300001D00226C9E00298002865D0BBF1000FF1
:107B4000FBD0002DF9D094F85100042802D0052074
:107B500084F8510000206065C4F838B0E587A58737
:107B600002992163E586A586206460642068016827
:107B7000490603D4016841F040010160E068B0F5B6
:107B8000006F606803D0F0B3012D47D081E008B1E9
:107B9000012D3CD1206B21680088C860206B801CBF
:107BA0002063E08E401EE08631E02068816889070E
:107BB0000FD5E18E69B1B9F1010F0AD1216B0988A6
:107BC000C160206B801C2063E08E401EE0864FF079
:107BD000000920688168C9070CD0E18F51B1C068E5
:107BE000A16B0880A06B801CA063E08F401EE08723
:107BF0004FF00109FEF7C8FAA0EB0800B84206D31F
:107C0000781C04D001E009E05BE003265BE0E08E35
:107C10000028CAD1E08F0028C7D140E0206B21683E
:107C200000780873206B401C2063E08E401EE086C5
:107C30002FE02068816889070FD5E18E69B1B9F11D
:107C4000010F0AD1216B09780173206B401C20635E
:107C5000E08E401EE0864FF0000920688168C90769
:107C60000CD0E18F51B1C068A16B0870A06B401CB3
:107C7000A063E08F401EE0874FF00109FEF784FA11
:107C8000A0EB0800B84202D3781C02D0BAE7002F5C
:107C9000B8D0E08E0028CCD1E08F0028C9D1424670
:107CA0003946204604F01EF918B1012620206065EF
:107CB0000BE0A06818B92068C16880680090606D0A
:107CC00008B1012601E084F851A0002084F850009A
:107CD000304627E72DE9F041044690F85000002691
:107CE00001280CD0012084F8500094F851000025A0
:107CF000676801280CD0B7F5827F07D102E0022027
:107D0000BDE8F081A7680FB9042801D002265DE024
:107D100049B342B33BB394F85100042802D0052084
:107D200084F8510065652163A386E386A263A38777
:107D3000E3872564656494F85100042815D0E16C4C
:107D40002448C8622448E16C8862E16C23480863D7
:107D5000E06C4563E38F2168A26B0C31E06CFDF7AA
:107D6000FBFFE0B906E0012630E0E16C1C48C86288
:107D70001C48E8E72068416841F001014160A06CBF
:107D8000C562A06C8562A06C0563A06C4563E38E40
:107D90002268216B0C32A06CFDF7DEFF20B1606D14
:107DA00040F010006065DEE720680168490603D4F2
:107DB000016841F0400101602068416841F0200104
:107DC00041602068416841F00201416084F85050F0
:107DD000304695E757BD00082FBE000821BD0008BA
:107DE00043BD000861BD000870B5044690F850001E
:107DF0000026012809D0012084F8500094F8510091
:107E00000025012803D002264AE0022070BD89B176
:107E100082B1032084F8510065652163A286E28661
:107E2000A56365642564A587E587A068B0F5004F64
:107E300002D00BE0012633E02068016821F0400108
:107E400001602068016841F480410160A16C16481E
:107E5000C862A16C15488862A16C15480863A06CC3
:107E60004563E38E2268216B0C32A06CFDF774FF32
:107E700020B1606D40F010006065DBE720680168AC
:107E8000490603D4016841F040010160206841685F
:107E900041F0200141602068416841F002014160E9
:107EA00084F85050304670BD4DBD0008CBBD000871
:107EB00021BD0008704770477047704710B5401EDD
:107EC000B0F1807F01D3012010BD4FF0E02460614C
:107ED0000F21601706F0AAFB0020A0610720206197
:107EE000002010BD7047704710B590F83C20012A63
:107EF00022D0012280F83C20CA688C6822F44072AB
:107F000022434C6822F4806222430C6822F400620F
:107F100022430C6922F4805222434C6922F400521D
:107F20002243C969002322F480420A4301684A645B
:107F300080F83C30002010BD022010BD70B590F8D4
:107F40003C20012A2CD0012480F83C40022280F8F9
:107F50003D2003685A689D6822F070060A68324323
:107F60005A60104B02689A420ED00F4B9A420BD0C7
:107F7000B2F1804F08D00D4B9A4205D00C4B9A427B
:107F800002D00C4B9A4204D1496825F08003194372
:107F9000916080F83D40002180F83C10084670BD9B
:107FA000022070BD002C014000340140000400405C
:107FB00000080040000C004010B5040003D094F805
:107FC0003D0010B107E0012010BD002084F83C0006
:107FD000204600F01FF8022084F83D00211D206893
:107FE00004F0D4F8012084F8460084F83E0084F8B8
:107FF0003F0084F8400084F8410084F8420084F88F
:10800000430084F8440084F8450084F83D000020D3
:1080100010BD000008B500680B49884212D10B481A
:10802000C16941F01001C161C069002200F0100077
:10803000009011463620FEF7B7FABDE8084036201A
:10804000FEF7A4BA08BD0000001000400010024076
:1080500090F83D10012901D001207047022180F8DD
:108060003D1000680E4988420ED00E4988420BD060
:10807000B0F1804F08D00C49884205D00B498842A6
:1080800002D00B49884204D1816801F0070106291A
:1080900003D0016841F00101016000207047000039
:1080A000002C014000340140000400400008004062
:1080B000000C004090F83D10012901D001207047CC
:1080C000022180F83D100168CA6842F00102CA60CE
:1080D00000680E4988420ED00D4988420BD0B0F19D
:1080E000804F08D00B49884205D00B49884202D006
:1080F0000A49884204D1816801F00701062903D0AA
:10810000016841F00101016000207047002C01402E
:10811000003401400004004000080040000C004012
:1081200001680A6A41F211131A4207D10A6A9B10C8
:108130001A4203D10A6822F001020A60012180F884
:108140003D10002070477047704770B504460068C6
:1081500001694FF00005C943890715D4C168C943B7
:10816000890711D4E91E0161012020772068806908
:108170008007204602D0FFF7E7FF04E000F0BEF8DA
:10818000204600F07FF9257720680169C943490737
:1081900017D4C168C943490713D46FF004010161C2
:1081A000022020772068806910F4407F204602D0AA
:1081B000FFF7CAFF04E000F0A1F8204600F062F9E2
:1081C000257720680169C943090716D4C168C943E6
:1081D000090712D46FF0080101610420207720689C
:1081E000C0698007204602D0FFF7AEFF04E000F030
:1081F00085F8204600F046F9257720680169C943D3
:10820000C90617D4C168C943C90613D46FF0100159
:108210000161082020772068C06910F4407F204663
:1082200002D0FFF791FF04E000F068F8204600F06C
:1082300029F9257720680169C943C90708D1C168B0
:10824000C943C90704D1891E0161204600F0F2F933
:1082500020680169C943090609D4C168C9430906F0
:1082600005D46FF0800101612046FFF73BFE2068D6
:108270000169C943490609D4C168C943490605D4FF
:108280006FF040010161204600F0F2F920680169B9
:10829000C94389060BD4C168C943890607D46FF066
:1082A000200101612046BDE87040FFF71CBE70BD93
:1082B00000B585B000210091019102910391006801
:1082C0000B49884211D10B48816941F0100181614D
:1082D0008069694600F01000049040200090022060
:1082E000019003900448FDF741FE05B000BD000079
:1082F000003401400010024000100140704770B58A
:10830000044690F83C0000260D4601280FD00120BD
:1083100084F83C006AB1042A1DD0082A2FD00C2A08
:108320003FD00126002084F83C00304670BD02207A
:1083300070BD206803F0F8FF2068816941F00801F2
:1083400081612068816921F004018161206881696F
:108350002A69114311E0206804F016F82068816949
:1083600041F4006181612068816921F4806181614B
:10837000206881692A6941EA02218161D2E7206887
:1083800004F038F82068C16941F00801C161206833
:10839000C16921F00401C1612068C1692A691143E2
:1083A00011E0206804F05AF82068C16941F40061C6
:1083B000C1612068C16921F48061C1612068C1691F
:1083C0002A6941EA0221C161ACE710B5040003D07B
:1083D00094F83D0010B107E0012010BD002084F8A2
:1083E0003C00204600F01EF8022084F83D00211DCC
:1083F000206803F0CBFE012084F8460084F83E009C
:1084000084F83F0084F8400084F8410084F842007A
:1084100084F8430084F8440084F8450084F83D0063
:10842000002010BD38B5054600681249884220D1A9
:108430001148816941F4005181618069104C00F458
:10844000005000900D4820601020606000208021C6
:10845000C4E90201490021618900C4E905108800CE
:10846000E0612046FDF73AFC08B1FCF7CFFC6C62F6
:10847000656238BD00340140001002403004024003
:1084800090380020704770472DE9F04117460D00E5
:1084900004464FF000060CD0042D11D0082D16D044
:1084A00094F84100022819D094F84100012818D00E
:1084B0007CE094F83E00022810D094F83E00F5E7E6
:1084C00094F83F00022809D094F83F00EEE794F8B2
:1084D0004000022802D094F84000E7E70220BDE8FF
:1084E000F081002F62D0002B60D04A494A4ADFF861
:1084F0002CC102204DB1042D18D0082D27D084F8AE
:1085000041000C2D44D0012681E084F83E00606AD1
:108510008162606A3946C262606AC0F830C022680F
:10852000606A3432FDF718FC88BB21E084F83F0014
:10853000A06A8162A06A3946C262A06AC0F830C0EF
:108540002268A06A3832FDF707FC00BB15E084F80A
:108550004000E06A8162E06A3946C262E06AC0F8BF
:1085600030C02268E06A3C32FDF7F6FB78B909E0DA
:108570002068C16841F400711EE02068C16841F4C0
:10858000806119E02068C16841F4006114E00DE0E9
:10859000206B8162206B3946C262206BC0F830C00C
:1085A0002268206B4032FDF7D7FB08B1012096E727
:1085B0002068C16841F48051C160012229462068C9
:1085C00003F02AFE16492068164A884201D09042DC
:1085D00003D1436C43F400434364206888420DD0C8
:1085E00090420BD0B0F1804F08D00F49884205D09F
:1085F0000E49884202D00E49884204D1816801F0B8
:108600000701062903D0016841F0010101603046ED
:1086100065E7000033C2000891C20008C9C2000823
:10862000002C0140003401400004004000080040DC
:10863000000C00401FB500680A49884211D10A4960
:108640000888401C80B20880C1070AD14008ADF8F4
:108650000C000648009003208DF80400684608F0DE
:10866000AFF81FBD0010004028000020E5490008B9
:10867000704770B5040004D094F84100002510B193
:1086800006E0012070BD84F84050204600F024F838
:10869000242084F841002068C16821F40051C160A1
:1086A000204604F003F82068016921F4904101613B
:1086B0002068416921F02A0141612068C16841F4C4
:1086C0000051C1606564202084F8410084F84200B4
:1086D0006563002070BD000030B585B000240094B3
:1086E0000194029403942B4D03682B48022103222A
:1086F000AB4229D1836943F480438361836903F4E6
:1087000080430493836943F0080383618069234DA8
:1087100000F0080004904020CDE900010392694672
:108720002846FDF723FC8020CDE900046946284651
:108730000294FDF71BFC1A48416841F0E06141F0EA
:108740000401416005B030BD164DAB42FAD1C3699A
:1087500043F40033C361C36903F4003304938369B2
:1087600043F00403836180690F4D00F0040004901E
:108770000420CDE90001039269462846FDF7F6FB87
:108780000820CDE90004694628460294FDF7EEFB77
:10879000D8E700000038014000100240000C014002
:1087A00000000140004400400008014002A10520F3
:1087B00003F07CFEFEE70000756E6B6E6F775F6501
:1087C00072726F725F486172644661756C7400000A
:1087D00001684A69D24352050FD46FF480624A613E
:1087E000002140F8301F202242738173026942F059
:1087F00004020261017301207047002070470000ED
:108800002DE9F843044600680D46DDE90897016844
:108810009846164641F4807101604B4600224FF0A5
:1088200001112046009700F06BF848B120680068FD
:10883000C00502D54FF4007020640320BDE8F88322
:10884000216805F0FE0008613B464A46154920466E
:1088500000F09EF888B920684169806900903A4626
:108860004946204600F0F2F848B1206C042804D1B3
:108870002068016841F4007101600120DEE7F5B273
:10888000B8F1010F09D02168300A08613A4649461B
:10889000204600F0DBF80028E7D1206805610020C1
:1088A000CCE700000200010070B516460D460446F4
:1088B0001EE02046FFF78CFF08B1012070BD681C48
:1088C00016D0FDF761FC801BA84200D885B920684E
:1088D0004069C04340070BD5002044F8300F2021E9
:1088E0006173A073216941F0200121612073E4E7E5
:1088F00020684069C0434007DBD4002070BD000001
:108900002DE9F047984617460D460446C1F3074641
:10891000DDF820902AE000BFB8F1FF3F26D0FDF738
:1089200033FCA0EB0901414502D8B8F1000F1DD17D
:108930002068012E16D0806925EA00000004000C92
:1089400012D00020B84211D1002044F8300F20216D
:108950006173A073216941F020012161207301201E
:10896000BDE8F0874069E7E70120EBE72068012ECA
:108970000AD0806925EA00000004000C06D000201F
:10898000B842C9D00020EBE74069F3E70120F7E7E0
:108990002DE9F047984616460D4604464FF000096B
:1089A0004FF0200AC1F3074723E020684069C04325
:1089B000400515D42068016841F400710160216808
:1089C0006FF480604861C4F8309084F83DA084F86A
:1089D0003E90216C41F00401216484F83C9021E038
:1089E000701C06D0FDF7D0FBA0EB0800B04203D806
:1089F00016B1012F1FD021E02068012F15D080690A
:108A000025EA00000004000C18D000BF44F8309F95
:108A100084F80DA084F80E90216941F020012161B5
:108A200084F80C900120BDE8F087406925EA000039
:108A30000004000CEAD12068406901E020688069E8
:108A400025EA00000004000CAFD1ECE770B5164633
:108A50000D4604461EE02046FFF7BAFE08B101208D
:108A600070BD681C16D0FDF78FFB801BA84200D894
:108A700085B920684069C04300060BD5002044F842
:108A8000300F20216173A073216941F02001216121
:108A90002073E4E720684069C0430006DBD400206F
:108AA00070BD0000002805D003494978002901D194
:108AB00006F036BC704700007001002003480178C2
:108AC000002901D1FF210180704700006C010020C6
:108AD000134610B54218B2F5003F01D3002010BD77
:108AE0000A46194600F5003000F0C4F8012010BD18
:108AF000134610B54218B2F5003F01D3002010BD57
:108B00000A46194600F5003000F006F9012010BDB4
:108B100010B5214CA0B06078002835D001221FA1EB
:108B20001F4806F0E7FE6070021E2FD01DA16846A8
:108B3000FBF7A8FB60780D2802D022A10E200EE0E2
:108B400025A10C2003F0B2FC4FF48053274A0021EA
:108B500012A006F0F5FB607030B125A10D2020B009
:108B6000BDE8104003F0A2BC27A16846FBF78AFBD2
:108B700001220AA1002006F0BDFE6070012207A1BB
:108B8000074806F0B7FE607020B010BD22A168460D
:108B9000FBF778FBF8E7000070010020323A000094
:108BA000787E00206D6F756E7420696E74666C61DE
:108BB0007368206572726F722C7265745B25645DD8
:108BC000000000006D6F756E745F666C6173685FA6
:108BD0006572726F720000006D6F756E745F666C07
:108BE0006173685F6D6B667300000000B08E0020DB
:108BF0006D6F756E745F666C6173685F6D6B6673C5
:108C00005F6572726F7200006D6B667320737563BF
:108C100063657373000000006D6F756E7420696E7C
:108C200074666C617368206F6B00000070B50C4651
:108C30000546FFF76DFF094A52780AB1002070BD62
:108C400001222146284606F079FE20B104A10F201A
:108C500003F02CFCF2E7012070BD00007001002041
:108C6000696E74666C6173685F6F70656E5F657264
:108C7000726F720070B514460D460646520807F032
:108C8000AFFEE00709D03019401E07F0BDFE0349D2
:108C900009780840291901F8010C70BD6C01002009
:108CA00070B50D4614460646114600F00DF8002832
:108CB00022462946304603D0BDE8704000F04CB84B
:108CC000BDE8704000F028B82DE9F041114F0D4685
:108CD00006464FF400684446A54203D9A5F5006551
:108CE000ADB200E02C46224639463046FFF7C2FFBF
:108CF0002644002007E0395CFF2902D00020BDE8AF
:108D0000F081401C80B2A042F5D3AC42E3D10120F7
:108D1000F5E7000034540020F8B514460D46064629
:108D2000520807F07DFEE00713D02644701E07F0BE
:108D30006BFE0849ADF80000012209888843291913
:108D400011F8011C0843ADF80000701E694607F0D9
:108D500067FEF8BD6C010020F8B514460D460646C6
:108D6000520807F0C9FEE00713D02644701E07F032
:108D70004BFE0849ADF800000122098888432919F3
:108D800011F8011C0843ADF80000701E694607F099
:108D9000B3FEF8BD6C010020F0B500230A24302595
:108DA00037261F4611E000BFB4EB107F02D905EB58
:108DB000107C01E006EB107C01F813C001EB430CC2
:108DC00000015B1C8CF80170DBB29342ECD3F0BD68
:108DD00010B5202110A004F07FFD0FA1002001F0AC
:108DE0003FFE00F083F8152114A004F075FD222148
:108DF00018A004F071FD17A1002001F031FE00F071
:108E00003BF815210DA004F067FDBDE810400BA153
:108E1000002001F025BE000043616C69627261743C
:108E200065204F726967696E2C446F206E6F7420E5
:108E3000746F7563682E2E2E0000000043616C690C
:108E40006272617465204F726967696E20656E6435
:108E50002E00000043616C69627261746520426F8C
:108E6000756E64696E672C526F746174696E6720E9
:108E7000526F642E2E2E000070B5174CE188618170
:108E80002089A081E18120824FF4FA606082134939
:108E90000220FBF72FFD12490320FBF72BFD00BF3B
:108EA00003F03CFA054606F0D1F903F037FA401B0F
:108EB000618AC0B2814203D9618A081A6082EFE7F1
:108EC00000F0D2F807490220FBF714FDBDE870401E
:108ED00005490320FBF70EBD1000002021C5000846
:108EE00049C5000875C5000881C5000870B50E4C5D
:108EF00000200A25E080208165820C490220FBF7D2
:108F0000F9FC0B490320FBF7F5FC00BF06F09EF9C6
:108F1000608A0028FAD1E088B0FBF5F0E080208973
:108F2000B0FBF5F0208170BD1000002039C50008AD
:108F300061C5000870B5114C0546A08A08B9E088E3
:108F4000A0820A22294680B2FBF71AFD002670B1E2
:108F50002078401CC0B2207032280AD3C822A18ACF
:108F6000E088FBF70DFD28B1A08AE08003E02670C1
:108F7000A58270BDA582267070BD00001000002083
:108F800070B5114C0546E08A08B92089E0820A22B2
:108F9000294680B2FBF7F4FC002670B16078401CD3
:108FA000C0B2607032280AD3C822E18A2089FBF758
:108FB000E7FC28B1E08A208103E06670E58270BD9D
:108FC000E582667070BD000010000020AFF30080E5
:108FD00010B50824022001F05DF8002824D00222F8
:108FE00012492046FFF746FE10490A200222891C3A
:108FF000FFF740FE0D490C200222091DFFF73AFE43
:109000000A490E200222891DFFF734FE074910206D
:1090100002220831FFF72EFE044912200222BDE889
:1090200010400A31FFF726BE10BD000016000020D8
:1090300010B5FFF75BFF05490220FBF75BFCBDE8BD
:10904000104003490320FBF755BC000075C500081C
:1090500081C5000810B50320FBF776FCBDE8104081
:109060000220FBF771BC000010B508200222134952
:10907000FFF716FE11490A200222891CFFF710FE95
:109080000E490C200222091DFFF70AFE0B490E2093
:109090000222891DFFF704FE084910200222083130
:1090A000FFF7FEFD0549122002220A31FFF7F8FD05
:1090B000BDE81040022001F005B8000016000020B5
:1090C00010B50346002072B61C788C4201D11A708C
:1090D0000120BFF35F8F62B610BD10B503460020BC
:1090E00072B61C688C4201D101201A60BFF35F8FF9
:1090F00062B610BD70B51E4E0D4604460122802199
:109100003046FDF73CF81B4A9463D5871068016828
:1091100041F04001016010688168C9070FD0007BF1
:10912000916B08700BE08168C90708D0007B916BD8
:109130000870906B401C9063D08F401ED087D08FFA
:1091400000281068EFD1016821F040010160002281
:1091500080213046FDF713F8012006E0C10702D058
:10916000215CC9432154401CC0B2A842F6D370BD53
:10917000000801402C36002010B50348FCF7EEF93A
:1091800002490020487010BD61E30008640000201F
:10919000084910B54A780AB1002010BD01224A7072
:1091A000C860054803F061FE034803F087FE012014
:1091B00010BD000064000020CC3C0020F8B504463F
:1091C000082816D2164D2F197878002812D0C4EB33
:1091D0000410C0EBC4164FF4027000EB86000222AC
:1091E0006946FFF747FDBDF80000A0F57E414D3907
:1091F00001D00020F8BD0A494FF4F47000EB86005E
:109200004FF4E2720C31FFF735FD2C7001207870BD
:109210004FF4E87202491820FFF742FD0120F8BD23
:10922000023D0020124810B50079A0F11301082971
:1092300016D2C0F11A00C4B2204600F077F878B117
:109240002046FFF7BBFF58B10A210AA004F044FBF7
:1092500001F0A8FB0AA1BDE81040002001F000BC0D
:10926000122109A004F038FB01F09CFB0BA1F2E7EE
:109270006400002053554343534545210D0A000027
:1092800053554343534545004C61796572206E75D3
:109290006D206572726F72210D0A00004C61796554
:1092A00072206E756D206572726F72210000000071
:1092B0007FB5114C0025A07802280FD20220A070A3
:1092C000072002958DF80400AFF21B000090ADF866
:1092D0000C500121684607F041FA7FBD0121074883
:1092E000FCF740FF28B1012084F80200FCF720F8C9
:1092F0007FBDA5700220F9E764000020000801404E
:109300001FB5002007218DF8041004490290009138
:10931000ADF80C00684607F053FA1FBDB192000883
:109320000148007870470000023D002010B5082871
:1093300014D20B490144497881B1C0EB0011C1EB53
:10934000C0104FF4F47101EB800020220549FFF7B3
:1093500091FC04490020C877084610BD002010BDCC
:10936000023D0020D23E002010B5002280210C4892
:10937000FCF705FF00F026F86C210A48FBF726F9F8
:1093800008486C216C30FBF721F906486C21D83075
:10939000FBF71CF9BDE81040034803F066BD000070
:1093A00000080140883B0020CC3C002010B5044C54
:1093B00020610320FBF7BCFF0020206110BD0000EE
:1093C000640000202DE9F0414FF4E87632461A4956
:1093D0001820FFF74FFC184C4FF4E27704F10C050E
:1093E0002078082813D2611C415C81B1C0EB0011C8
:1093F000C1EBC0104FF4F47101EB80003A462946EE
:10940000FFF738FCA08DA0F57E414D3911D03146D3
:109410000948FBF7B9F808202070324606491820A1
:10942000FFF73EFC3A4605492846FBF72EF804486C
:109430000560BDE8F0810000023D0020BB25010869
:109440004C01002010B501F0E5FA0D4C607938B1FF
:109450000CA1002001F004FBFFF7FCFD00200AE056
:10946000FFF7B6FC0A210CA004F036FA0DA100208B
:1094700001F0F6FA01206071BDE81040FBF7C8BFAB
:10948000640000204D6F7573652053746F70205316
:1094900055434345535300005355434353454521DA
:1094A0000D0A0000535543434553530010B517218F
:1094B0000BA004F011FA01F0ADFA0F48C16D0020C5
:1094C00001F0CEFA0DA1012001F0CAFA042000F04B
:1094D000F9FD082000F0F6FDBDE81040FBF798BF4D
:1094E000506C756720746865205553422062616333
:1094F0006B20696E210D0A007C000020506C75679E
:109500002074686520555342206261636B20696E48
:109510002100000070B5164D044608280BD3002426
:109520002819407828B1641CE4B2082CF8D3002034
:1095300070BD082CFBD24FF64D60A885C4EB04101B
:10954000C0EBC4104FF4F47101EB800008494FF4F4
:10955000E2720C31FFF7A4FB29192C70012048702E
:109560004FF4E87202491820FFF79AFB012070BD02
:10957000023D002001480078FFF7CCBF023D0020EB
:10958000154810B500791A2803D0192804D00020F6
:1095900010BDFFF7EFFF02E00820FFF7BBFF58B157
:1095A0000A210EA004F098F901F0FCF90EA10020A8
:1095B00001F056FA012010BD12210DA004F08CF923
:1095C00001F0F0F904481830C16B002001F048FAAE
:1095D0000CA10120ECE70000640000205355434338
:1095E000534545210D0A000053554343455353004D
:1095F00053617665206C61796572206572726F7255
:109600000D0A000053617665206C617965722065F2
:1096100072726F7200000000204B10B51879204C58
:109620002A280CD000F022FB002834D09879197930
:109630002154401CC0B298711F2803D22BE09879A6
:1096400000281FD0997900206054154800F02EFAA8
:109650001B2114A004F040F91B2119A004F03CF9CF
:1096600001F0A0F90D481830C16B002001F0F8F9A5
:109670001AA1012001F0F4F91EA1022001F0F0F975
:10968000012010BD0B2120A004F026F901F08AF979
:1096900020A10020F2E7002010BD0000640000209F
:1096A000E23C00205361766520746F20637572720E
:1096B000656E74206C617965722D2D2D310D0A0057
:1096C0005361766520746F206E6577206C617965D3
:1096D000722D2D2D2D2D2D2D320D0A005361766505
:1096E00020746F2063757272656E74206C61796589
:1096F000720000005361766520746F206E657720DC
:109700006C617965720000004E6F20696E7075742F
:10971000210D0A004E6F20696E70757421000000E3
:109720001FB504208DF80400034800900348017819
:10973000684607F013F81FBD49A000086400002028
:1097400070B56A4DE878002605F11804032803D0A7
:1097500084F83860FBF75CFE296911B16448FBF7B7
:10976000AFFE94F838000B2850D2DFE800F0063D39
:10977000565B5E7A838897A9BC00E06B3834FAF7B1
:1097800065FE0146606804F0A7F8172159A004F0AF
:10979000A3F817215DA004F09FF8172161A004F041
:1097A0009BF8172165A004F097F8172169A004F031
:1097B00093F801F02FF90020616801F051F96BA1D5
:1097C000012001F04DF96DA1022001F049F96EA1CF
:1097D000032001F045F96FA1042001F041F971A1C6
:1097E000052001F03DF93AE000F018FC29798842A3
:1097F0000CD91639052909D2DFE801F00D0B09054E
:109800000300022000E0042084F8380070BD072027
:10981000FAE70820F8E70920F6E700F073F90028D6
:109820005DD022E0FFF7FEFC59E0122161A004F0B8
:1098300053F8212164A004F04FF801F0B3F8E16B74
:109840000020383401F00CF968A1012001F008F97A
:109850006BA1022001F004F97148AE71C67720783F
:1098600005E0FFF7D9FE0028D0D014F8380F401CCF
:10987000207070BDFFF784FE002830D170BD01203C
:1098800000F0DAFB142167A004F026F801F08AF852
:109890000020E16B01F0E4F868A10DE0002000F089
:1098A000CBFB16216AA004F017F801F07BF800202A
:1098B000E16B01F0D5F86CA1012001F0D1F80EE0C8
:1098C00014216FA004F008F801F06CF80020E16B9F
:1098D00001F0C6F870A1012001F0C2F89DE7BDE8D3
:1098E0007040FBF795BDFBF7E3FCF8E76400002050
:1098F00051C000084368616E6765206C61796572CC
:109900002D2D2D2D2D2D2D2D310D0A005361766518
:10991000206C617965722D2D2D2D2D2D2D2D2D2D48
:10992000320D0A004C6F636B206C617965722D2DCE
:109930002D2D2D2D2D2D2D2D330D0A00556E6C6FD7
:10994000636B206C617965722D2D2D2D2D2D2D2DA4
:10995000340D0A0044656C657465206C617965722C
:109960002D2D2D2D2D2D2D2D350D0A004368616EC9
:109970006765206C6179657200000000536176654F
:10998000206C6179657200004C6F636B206C6179AB
:1099900065720000556E6C6F636B206C6179657247
:1099A0000000000044656C657465206C6179657227
:1099B00000000000496E707574206C61796572203A
:1099C0006E616D650D0A00004D6178206E616D65F8
:1099D000206C656E3A32362C456E74657220746F59
:1099E0002066696E6973680D0A000000496E707523
:1099F00074206C61796572206E616D6500000000F5
:109A00004D6178206E616D65206C656E3A32362C42
:109A1000456E74657220746F2066696E69736800A4
:109A2000E23C00204C6F636B2063757272656E744C
:109A3000206C617965720D0A000000004C6F636B49
:109A40002063757272656E74206C617965720000B6
:109A5000556E6C6F636B2063757272656E74206CEB
:109A6000617965720D0A0000556E6C6F636B20633F
:109A7000757272656E74206C617965720000000009
:109A8000496E707574206C61796572206E756D62B7
:109A900065720D0A00000000496E707574206C61DB
:109AA000796572206E756D626572000070B50A4E40
:109AB00005460024285D50B100F09AFA32198178E9
:109AC0001173807818B1641CE4B21B2CF2D300200F
:109AD0003119087370BD0000023D0020084A126869
