:020000040800F2
:10000000300D00204901000833170008371200089E
:100010003117000835020008891C000800000000A4
:10002000000000000000000000000000F5170008BC
:100030003B03000800000000351700089D1A000867
:100040006301000863010008630100086301000800
:1000500063010008630100086301000863010008F0
:1000600063010008630100086301000863010008E0
:1000700063010008630100086301000863010008D0
:1000800063010008630100086301000863010008C0
:1000900063010008630100086301000863010008B0
:1000A00063010008630100086301000863010008A0
:1000B0006301000863010008630100086301000890
:1000C0006301000863010008630100086301000880
:1000D0006301000863010008630100086301000870
:1000E0006301000863010008630100086301000860
:1000F0006301000863010008630100086301000850
:10010000630100086301000863010008630100083F
:10011000630100086301000863010008630100082F
:10012000630100086301000863010008630100081F
:10013000DFF810D000F06CF800480047A92D000847
:10014000AFF30080300D0020064880470648004786
:10015000FEE7FEE7FEE7FEE7FEE7FEE7FEE7FEE777
:10016000FEE7FEE7FF1A000831010008202A04DB41
:10017000203A21FA02F00021704721FA02F3D04020
:10018000C2F12002914008431946704740EA01033A
:100190009B0703D009E008C9121F08C0042AFAD23D
:1001A00003E011F8013B00F8013B521EF9D2704701
:1001B000D2B201E000F8012B491EFBD270470022A9
:1001C000F6E710B513460A4604461946FFF7F0FF56
:1001D000204610BDCAB2401E10F8011F8A4202D04C
:1001E0000029F9D100207047421C10F8011B00299A
:1001F000FBD1801A704730B504460020034600E06A
:100200005B1C934203D2E05CCD5C401BF8D030BD58
:10021000064C074D06E0E06840F0010394E8070053
:1002200098471034AC42F6D3FFF786FFB038000889
:10023000D0380008FEE7000030B5044600206518FD
:1002400004E000BF14F8011B01F00EFDAC42F9D32D
:10025000002101F009FDBDE83040002101F004BD9E
:1002600010B501F029F858B1012207A10A4802F09F
:1002700039FA38B109A1032001F042FC002010BD79
:100280000BA1F8E7012010BD313A62696E2F504191
:100290004C4B2E62696E0000240000204F70656E8A
:1002A0002062696E2066696C65206661696C210058
:1002B0004D6F756E74206673206661696C21000055
:1002C0007FB5164C01460022E068154D0392884226
:1002D0001CD10021204602F0D7F819E0284602F090
:1002E0002DFC064603AB042269460C4802F0D5FA01
:1002F0000398042806D0E1686069884206D101208D
:1003000004B070BD00982D1D864201D00020F7E793
:100310006169E0688142E1D1F1E70000240000203A
:100320000040000810B500F0FDFF01F017F901F0E2
:10033000D9F8BDE8104000F0B3B8704708B5002008
:1003400000906946044801F075FA08B103A000E086
:1003500007A001F039FB08BD004000080D0A446FFA
:10036000776E6C6F6164206572726F72210D0A0086
:100370000D0A446F776E6C6F6164207375636365FB
:100380007373210D0A00000072B6FEE706490020D3
:10039000C8610648016941F004010161016941F049
:1003A00040010161704700009802002000200240D7
:1003B000064A0021D16106490A6942F002020A6137
:1003C0004861086940F040000861704798020020C9
:1003D00000200240044B0022DA61044A136943F012
:1003E0000103136101807047980200200020024041
:1003F00014480022C168CB06134904D5CA6942F0EB
:100400000202CA611022C3685B0705D5CB6943F0BD
:100410000103CB6142F00402C369DB0707D0CB695B
:1004200043F00403CB61C16921F00101C161A2F570
:100430008071013901D0C2607047C16921F00101AA
:10044000C1617047002002409802002070B5054647
:1004500000F09AFA0646114C09E0681C07D025B155
:1004600000F092FA801BA84201D9032070BDE06819
:10047000C007F2D1E068800601D52020E060E06886
:10048000C00605D4E069C00702D1E068400703D583
:10049000FFF7AEFF012070BD002070BD00200240BC
:1004A000064810B54FF0FF31016100220261C160C2
:1004B000C26000F0A9FA002010BD00000010024048
:1004C00070B5044600F060FA0546601C02D004488E
:1004D0000078044400F058FA401BA042FAD370BDE3
:1004E000040000202DE9F047054626480F46012666
:1004F000017E01290FD00121814601762868DFF8AD
:1005000088804CF25034022808D0A2462046FFF7DB
:100510009DFFA8B131E00220BDE8F0872046FFF73B
:1005200095FF08BB0120FFF731FF2046FFF78EFF44
:10053000D8F81010064621F00401C8F810101CE08D
:100540004FF0FF303860AC6811E02046FFF730FF15
:100550005046FFF77BFFD8F81010060021F002018B
:10056000C8F8101001D03C6007E004F50064D5E93C
:10057000020100EBC120A042E7D8002189F8181041
:100580003046C9E798020020002002400348016974
:1005900041F080010161002070470000002002400E
:1005A0002DE9F05F07461C4888460024017E154669
:1005B0001E46012909D00121814601764CF2503AAC
:1005C0005046FFF743FF18B122E00220BDE8F09F3C
:1005D000012F02D0022F00D00427D346DFF83CA021
:1005E000220128463146FFF7C1FD81B208EB4400E5
:1005F000FFF7F0FE5846FFF729FFDAF8102022F047
:100600000102CAF8102018B9641CE4B2BC42E7D356
:10061000002289F81820D9E7980200200020024023
:10062000064900200A69120607D5054A4A60054AAC
:100630004A600969090600D5012070470020024080
:1006400023016745AB89EFCD2DE9F0430023454FEA
:100650000F2581E001229A400A407BD023F0030459
:10066000E619D6F808809C074FEA147C05FA0CF9C5
:1006700009EA0804DFF8F080404502D14FF0000895
:1006800024E0DFF8E880404502D14FF001081DE08A
:10069000DFF8DC80404502D14FF0020816E0DFF8B9
:1006A000D480404502D14FF003080FE0DFF8C88046
:1006B000404502D14FF0040808E0DFF8C080404513
:1006C00002D14FF0050801E04FF0060808FA0CF8D7
:1006D000A04522D12A4CD4F800C02CEA020CC4F860
:1006E00000C0241DD4F800C02CEA020CC4F800C0DD
:1006F000234C0C34D4F800C02CEA020CC4F800C01F
:10070000241FD4F800C02CEA020CC4F800C0D6F8AC
:1007100008C02CEA090CC6F808C0FF2A01D8064612
:1007200001E000F104064FEA830401D9A4F120049A
:10073000D6F800C005FA04F82CEA080C4FF00408BB
:1007400008FA04F84CEA080CC6F800C0C46824EAA9
:100750000204C46003F1010331FA03F27FF47AAFBB
:10076000BDE8F0830000014000080140000C01409A
:10077000001001400014014000180140001C01401D
:10078000000401402DE9F84FDFF8C8910024A9F1D9
:10079000040B23460F2709F1040AABF1040ED1E044
:1007A0000125A54006EA0502AA4276D1DFF8A8C1D4
:1007B0004E68A6EB0C0866452BD00DDC032E34D01A
:1007C00005DC36B3012E19D0022E2FD11BE0112EDD
:1007D00016D0122E2AD119E0B8F5881F19D006DCE0
:1007E000B8F5803F15D0B8F5801F1FD111E0B8F5DE
:1007F000001F0ED0B8F5041F18D10AE0CB6815E031
:10080000CB681B1D12E0CB6808330FE0CB680C33BC
:100810000CE08B682BB1012B4FF0080303D045612E
:1008200004E0042302E0056100E00023FF2A01D870
:10083000064601E000F104064FEA840501D9A5F15E
:100840002005D6F8008007FA05FC28EA0C0803FA10
:1008500005F548EA0508C6F800804D68ED0070D53A
:100860003E4DAE6946F00106AE61AD6924F0030667
:1008700005F0010500953A4D06EB050CDCF8085033
:10088000A607360F07FA06F825EA0805DFF8D48030
:10089000404503D14FF0000825E052E0DFF8C88062
:1008A000404502D14FF001081DE0DFF8C08040450F
:1008B00002D14FF0020816E0DFF8B480404502D1C3
:1008C0004FF003080FE0DFF8AC80404502D14FF055
:1008D000040808E0DFF8A080404502D14FF0050889
:1008E00001E04FF0060808FA06F848EA0508CCF8D7
:1008F00008804D68D9F80060ED024D4601D51643D9
:1009000000E096432E604D68DAF80060AD0255466F
:1009100001D5164300E096432E604D68DBF8006079
:10092000AD035D4601D5164300E096432E604D6849
:10093000DEF80060ED03754601D5164300E09643EE
:100940002E60641C0A681646E2407FF429AFBDE8B9
:10095000F88F000008040140000011100010024050
:100960000000014000080140000C0140001001405F
:100970000014014000180140001C0140806808403C
:1009800000D00120704700000148806870470000D7
:100990000400002002488168027811448160704799
:1009A00004000020074810B5016841F01001016003
:1009B000032000F069F80F2000F006F800F026F898
:1009C000002010BD0020024070B50D4D04464FF4CC
:1009D0007A712878B1FBF0F00A490968B1FBF0F0B0
:1009E00000F0D0FA48B9102C07D200222146501E40
:1009F00000F02AF800206C6070BD012070BD00007E
:100A00000400002010000020704700000C4808B5CA
:100A1000816941F001018161816901F00101009169
:100A2000C16941F08051C161C06900F080500090FF
:100A30000448416821F0E06141F00071416008BD67
:100A40000010024000000140F0B40E4B1B680C4641
:100A5000C3F30223C3F10705042D00D90425191D92
:100A6000072901D2002300E0DB1E012606FA05F16A
:100A7000491E214099409E40761E16403143F0BCED
:100A800001F0F0B90CED00E0064900F0070208683B
:100A90004FF6FF03184040EA0220034A1043086063
:100AA000704700000CED00E00000FA052DE9F0476A
:100AB0000F46050061D0434E306800F00700B84291
:100AC00009D2306820F0070038433060306800F009
:100AD0000700B84251D128683B4C810712D5400726
:100AE00003D5606840F4E06060602878000703D5B3
:100AF000606840F4605060606068A96820F0F000B1
:100B0000084360602878C00728D06868012810D0A2
:100B10002168022810D0890700292EDA616821F0A7
:100B2000030101436160FFF72FFF804641F28839DE
:100B30000DE021688903EFE78901EDE7FFF724FF66
:100B4000A0EB0801494502D90320BDE8F0876068A1
:100B5000696800F00C00B0EB810FEFD1306800F055
:100B60000700B8420BD9306820F0070038433060E6
:100B7000306800F00700B84201D00120E5E728788E
:100B8000400705D56068E96820F4E06008436060CC
:100B90002878000706D56068296920F4605040EA8B
:100BA000C100606000F038F86168084AC1F30311C1
:100BB000515CC8400649086006480068FFF704FF1A
:100BC0000020C2E70020024000100240A0340008CC
:100BD000100000200800002004480549006849680A
:100BE000044AC1F30221515CC84070471000002044
:100BF00000100240B0340008044805490068496804
:100C0000044AC1F3C221515CC84070471000002063
:100C100000100240B03400080E4A51680E4801F03E
:100C20000C03042B11D0082B0FD10C48C1F38343C4
:100C3000C903C05C0AD55168084AC1F34041921EFD
:100C4000515C054A5043B0FBF1F0704704494843FA
:100C5000704700000010024000127A009034000833
:100C600000093D002DE9F84F040070D02078C04DF8
:100C7000C00749D06868C0F38100012807D06868C0
:100C8000C0F38100022809D16868C00306D528682E
:100C9000800339D560680028E7D035E06068B0F59A
:100CA000803F0BD010B1B0F5A02F11D0286820F4F0
:100CB00080302860286820F4802002E0286840F412
:100CC00080302860606890B1FFF75EFE06460AE05B
:100CD000286840F480202860F0E700BFFFF754FE4A
:100CE000801B642873D828688003F7D50CE0FFF7D1
:100CF0004BFE064605E000BFFFF746FE801B64285A
:100D0000F0D828688003F7D420789A4E80074FF0F7
:100D100001094FF0000839D5686810F00C0F07D0B2
:100D20006868C0F38100022809D16868C00306D44E
:100D30002868800714D52069012808D110E02069AF
:100D4000B0B1C6F80090FFF71FFE074605E00AE1C4
:100D5000FFF71AFEC01B0228C4D828688007F7D501
:100D60002868616920F0F80040EAC10028600DE0C1
:100D7000C6F80080FFF708FE074604E0FFF704FE10
:100D8000C01B022823D828688007F7D420780007E2
:100D90002CD57948A169D9B1C0F80090FFF7F4FDCE
:100DA000074604E0FFF7F0FDC01B02280FD8686A71
:100DB0008007F7D571484FF4FA510068B0FBF1F0A5
:100DC000009000BF0098411E0091FAD20EE080E032
:100DD000C0F80080FFF7D8FD074604E0FFF7D4FD18
:100DE000C01B022875D8686A8007F7D420784007AE
:100DF00060D5E8690027C00008D4E86940F0805059
:100E0000E861E869012700F0805000905C480168C3
:100E1000C90513D40168834641F480710160FFF76E
:100E2000B3FD824606E000BFFFF7AEFDA0EB0A006F
:100E300064284ED8DBF80000C005F5D5E06801282D
:100E40000AD008B1052813D0286A20F001002862D2
:100E5000286A20F0040002E0286A40F001002862BD
:100E6000E06841F2883B98B1FFF78EFD82460BE0C7
:100E7000286A40F004002862EEE700BFFFF784FD17
:100E8000A0EB0A0159455AD8286A8007F6D50CE02C
:100E9000FFF77AFD824605E0FFF776FDA0EB0A0139
:100EA00059454CD8286A8007F6D41FB1E86920F06C
:100EB0008050E861E06988B36968C1F38101022963
:100EC00044D00228C6F8608004D0FFF75DFD0446D8
:100ED00038E034E0FFF758FD074604E0FFF754FD23
:100EE000C01B02282BD828688001F7D4206AB0F5EF
:100EF000803F05D16868A16820F40030084368602D
:100F0000D4E908010843696821F474110843686052
:100F1000C6F86090FFF738FD044606E025E000BF04
:100F2000FFF732FD001B022809D828688001F7D599
:100F30001BE000BFFFF728FD001B022802D9032099
:100F4000BDE8F88F28688001F4D40EE00128F7D0BE
:100F50006868226A00F48031914204D1616A00F429
:100F60007010884201D00120EAE70020E8E7000085
:100F70000010024000004242800442421000002063
:100F80000070004010B5401EB0F1807F01D30120F9
:100F900010BD4FF0E02460610F21601700F062FF88
:100FA0000020A06107202061002010BD10B50400C2
:100FB00015D0242084F841002068C16821F4005134
:100FC000C160204600F040F80020606484F84100D1
:100FD00084F8420044F8300F6060207410BD012096
:100FE00010BD70B5040004D094F84100002510B184
:100FF00006E0012070BD84F84050204600F038F82B
:10100000242084F841002068C16821F40051C160A7
:10101000204600F091FD2068016921F490410161B2
:101020002068416921F02A0141612068C16841F4CA
:101030000051C1606564202084F8410084F84200BA
:101040006563002070BD000000680649884208D131
:101050000548816921F480418161C0210348FFF77F
:10106000F3BA70470038014000100240000C014004
:1010700030B585B000240094019402940394006874
:10108000174988422AD11748816941F4804181611A
:10109000816901F480410491816941F00801816115
:1010A0008069114D00F0080004904020009002205B
:1010B00001900320039069462846FFF763FB8020D8
:1010C000CDE90004694628460294FFF75BFB074818
:1010D000416841F0E06141F00401416005B030BD7C
:1010E0000038014000100240000C014000000140A7
:1010F0002DE9F843044690F84200994616460D46FD
:10110000202802D00220BDE8F883ADB1A6B10020AE
:101110006064222184F842102063FFF735FCA68525
:101120008046E685A0684FF48057B84201D1206917
:1011300020B12E46002526E00120E4E7002622E02B
:101140004346002220212046CDF8009000F050FDBB
:1011500008B10320D7E726B1A068B8421BD038B148
:1011600008E020684068C0F3080025F8020B07E09B
:10117000206980B12068406800F07F0006F8010B0C
:10118000E08D401EE085E08D0028D9D1202084F834
:1011900042000020B7E720684068EFE72DE9F843F8
:1011A000044690F841001F4616460D46202802D0FE
:1011B0000220BDE8F8837DB176B100206064212073
:1011C00084F84100FFF7E0FBA6848046E684A0682F
:1011D000B0F5805F02D003E00120EAE7206910B19A
:1011E0002E4600250EE000260CE08021204600F06F
:1011F000FFFCA0B9AEB116F8010B21684860E08C85
:10120000401EE084E08C43464FF000020097002827
:10121000EBD14FF04001204600F0EAFC30B1032052
:10122000C7E735F8020BC0F30800E6E7202084F892
:1012300041000020BDE7FEE7F0B500220D4B15464A
:1012400014460A27B1FBF3F630368654B1FBF3F6A9
:1012500003FB1611B3FBF7F3521C861816F8016C4A
:10126000302E00D125B16D1C641C0A2CEAD3F0BDD0
:101270000022F9E700CA9A3B134610B54218B2F5AE
:10128000003F01D3002010BD0A46194600F500308A
:1012900000F034F8012010BD134610B54218B2F525
:1012A000003F01D3002010BD0A46194600F500306A
:1012B00000F048F8012010BD10B5012207A1084830
:1012C00001F0ECF90749087028B107A1032000F0EC
:1012D00017FC002010BD012010BD0000313A0000B5
:1012E000B8020020140000206D6F756E745F666C8C
:1012F0006173685F6572726F7200000070B51446AA
:101300000D460646520801F097FFE00707D0301956
:101310000349401E405A0020291901F8010C70BDF4
:101320000000040810B5054C2078002805D10122E2
:1013300003A101F0B3F90220207010BD14000020B9
:10134000313A0000F8B514460D460646520801F041
:1013500093FFE00711D02644701E01F081FF291988
:10136000ADF8000011F8011CC0B20843ADF8000050
:10137000701E0122694601F07FFFF8BD0D4A5368D7
:101380000D484FF0FF3103604FF0E020C0F88011AE
:10139000C0F88411C0F88811C0F88012C0F8841217
:1013A000C0F888120021016104480260106880F3CF
:1013B00008881847004000080000002008ED00E001
:1013C0007CB50020184C194D009012E00098C0B177
:1013D000600502D1204601F099FB2046019901F0F9
:1013E000D1FB0098E96804446869884209D0A007E5
:1013F00007D16B46042201A90C4801F04EFA0028DF
:10140000E4D0094840422044FEF75AFF040003D1CB
:1014100007A1032000F074FB044801F026F80AA09D
:1014200001F02BFB20467CBD00400008240000207A
:10143000436865636B2074686520666C617368201F
:101440006661696C21000000313A62696E2F50417B
:101450004C4B2E62696E00002DE9F0410B4F0C4E93
:1014600000244FF4C838E01901F068FB0546600518
:1014700002D1A01901F04AFB2946A01901F082FB14
:10148000241D4445EFD3BDE8F081000000000208B0
:101490000040000810B50446002001F0E7FE20429D
:1014A00001D1012010BD002010BD38B50446002038
:1014B00001F0DCFE20430090042269460020FFF783
:1014C00041FF38BD10B5FEF7CBFE002809D000F073
:1014D00093F9FFF775FF002803D1BDE81040FFF72F
:1014E000BBBF10BD0648816921F008018161816997
:1014F00021F004018161816921F02001816170473F
:101500000010024000B585B00020019002900390C9
:101510001048816941F020018161816901F0200159
:101520000491816941F008018161816901F008013C
:101530000491816941F0040181618069694600F08C
:1015400004000490042000900348FFF71BF905B045
:1015500000BD000000100240000C01400148FFF7F0
:1015600025BD0000500200200C4810B50A4901605A
:101570004FF4E1314160002181600C22C160C0E97B
:1015800004128161C161FFF72CFD002803D0BDE882
:101590001040FEF7F9BE10BD003801405002002097
:1015A00038B500208DF800002A4800F00DFA2A48CE
:1015B00000F00AFA294800F007FA294800F004FA76
:1015C000264800F001FA274800F0FEF9214800F013
:1015D000FBF925A000F0F8F9254D4FF0FF34254820
:1015E00000F0F2F9244800F0EFF9244800F0ECF99B
:1015F000234800F0E9F9234800F0E6F9286840683C
:101600002346012269461A48FFF772FD9DF8000043
:10161000312807D0322808D033280DD0342814D0F0
:1016200019A00FE0FEF78AFED9E727A000F0CCF959
:1016300000F0E2F828A005E030A000F0C5F9FFF7BF
:101640000BFF32A000F0C0F9C9E7384800F0BCF940
:1016500038BD00001838000834370008E8360008A4
:10166000CC370008803700080D0A0D0A0000000082
:101670005002002048360008383500087C35000844
:10168000C035000804360008496E76616C69642034
:101690004E756D6265722021203D3D3E2054686587
:1016A000206E756D6265722073686F756C64206260
:1016B000652065697468657220312C20322C2033D6
:1016C0002C20340D000000000D0A536176696E670E
:1016D0002E2E2E0D0A0000000D0A53617665206340
:1016E000757272656E74206669726D7761726520BD
:1016F00073756363657373210D0A00000D0A4C6FE7
:101700006164696E672E2E2E0D0A00000D0A4C6F63
:101710006164206F6C64206669726D776172652008
:1017200073756363657373210D0A000064380008E4
:10173000FEE7FEE7704700002DE9F84300240F465E
:101740000646904613460C60012269462848FFF77A
:10175000CFFC050020D19DF80000182820D006DC21
:1017600001280BD002280BD0042804D104E0412822
:1017700027D0612825D0012530700DE0802401E0BC
:101780004FF480643070221D4346B11C1848FFF7A7
:10179000AFFC050017D0002428463C60BDE8F88364
:1017A0004346012269461248FFF7A2FC18B99DF88A
:1017B0000000182803D001259DF80000DCE7022472
:1017C000DAE70225D8E7F178B07881F0FF018842A6
:1017D0000AD130190179407900EB01282146301DEA
:1017E000FEF72AFD4045D7D000240125D4E70000AC
:1017F00050020020704700002DE9F0410B4F0C4EC5
:1018000000244FF4C838E01901F098F90546600546
:1018100002D1A01901F07AF92946A01901F0B2F914
:10182000241D4445EFD3BDE8F081000000400008CE
:10183000000002087FB50D46002104460091019189
:1018400002911AA0039100F0BFF8002203A92046DC
:1018500000F01CFA04000ED0052C21D0042C21D05D
:10186000022C21D020A000BF00F0AEF80398286021
:1018700004B0204670BD244800F0A6F8234800F0CC
:10188000A3F868460399FFF7D7FC21A000F09CF865
:10189000684600F099F821A000F096F822A0E3E74E
:1018A00027A0E1E736A0DFE73CA0DDE757616974D8
:1018B000696E6720666F72207468652066696C6562
:1018C00020746F2062652073656E74202E2E2E208A
:1018D0002870726573732027612720746F206162FE
:1018E0006F7274290A0D00000A0D4661696C656407
:1018F00020746F2072656365697665207468652061
:1019000066696C65210A0D0094360008E804002021
:101910000A0D2053697A653A20000000204279744C
:1019200065730D0A000000002D2D2D2D2D2D2D2D60
:101930002D2D2D2D2D2D2D2D2D2D2D0A00000000AE
:101940000A0A0D54686520696D6167652073697ABC
:101950006520697320686967686572207468616EC4
:101960002074686520616C6C6F77656420737061AA
:101970006365206D656D6F7279210A0D00000000AE
:101980000A0A0D566572696669636174696F6E2033
:101990006661696C6564210A0D0000000D0A0A4148
:1019A000626F7274656420627920757365722E0AA5
:1019B0000D00000001B56423012269460148FFF7CC
:1019C000EDFB08BD50020020002201E0521C92B243
:1019D000815C0029FAD1014664230148FFF7DEBB90
:1019E00050020020F0B5054600242A782046234600
:1019F000302A2ED16A78782A01D0582A29D1022497
:101A00001CE000BFA2F14106052E07D9A2F1610733
:101A1000052F03D91136092E04D913E0A2F130079E
:101A2000092F01D8303A04E0052E01D8373A00E0FA
:101A3000573A641C02EB03130B2C04D22A5D002AD4
:101A4000E0D103E000202A5D002A01D101200B60D3
:101A5000F0BD2A5D62B16B2A01D04B2A02D10CB1D4
:101A60009B0205E06D2A01D04D2A04D11CB11B0553
:101A700001200B600AE0A2F13006092E0CD803EB1E
:101A800083036FF02F0606EB43031344641C0B2CF7
:101A9000DED20128DDD1F0BD0020F0BDFEF77ABF17
:101AA00030B58FB028216846FEF789FB14210AA8BB
:101AB000FEF785FB01210804CDE900100024029403
:101AC00002250491CDE907504FF4E01009906846D3
:101AD000FFF7C8F808B172B6FEE70F20CDE90A0596
:101AE0004FF48060CDE90C4002210AA80E94FEF765
:101AF000DDFF002801D072B6FEE70FB030BD7047A1
:101B000010B50C46032810D3C823062207A10948A4
:101B1000FFF744FB2046FEF767FB214682B2BDE893
:101B20001040C8230348FFF739BB10BD0D0A5B45C1
:101B30005D3A00005002002070B50446006801695B
:101B4000E26821F44051114301612169A068084312
:101B5000616908432168CA6841F20C639A430243F1
:101B6000CA6020684169A26921F440711143416152
:101B70001E492068884202D1FFF73EF801E0FFF7D6
:101B80002BF800EBC00101EB0012606864218000BB
:101B9000B2FBF0F3B3FBF1F36FF018067343B2FB43
:101BA000F0F5B2FBF0F605EB8305322303EB0515E8
:101BB000B5FBF1F5B6FBF1F605F0F00505EB061502
:101BC000B2FBF0F6B2FBF0F0B0FBF1F06FF01802F0
:101BD000504306EB800003EB0010B0FBF1F02168EE
:101BE00000F00F002844886070BD000000380140FC
:101BF0002DE9F041984617460E460446069D27E01B
:101C0000681C25D02DB1FEF7BFFEA0EB0800A8424E
:101C10001ED920680C3050E8001F21F4D07140E834
:101C20000012002AF5D12068143050E8001F21F07E
:101C3000010140E80012002AF5D1202084F841007B
:101C400084F84200002084F840000320BDE8F081C1
:101C50002068006836EA000004D00020B842CFD0E7
:101C60000020F3E70120F9E741F4807141F22102FD
:101C700040004900CB0500D5401CC30300D55040AF
:101C8000CB03F5D580B27047FEE700002DE9F74F92
:101C9000002796B03E46B8463C468246DFF8B8B1CB
:101CA000D4E000BF4FF000094D46CBE04FF47A720C
:101CB0000EA96948FFF740FD60B1022873D0B8F162
:101CC000000F00D0761C052E6ED91820FFF772FE8B
:101CD0001820B5E00E98002660B1022805D09BF8C8
:101CE00002204A450BD01520AAE00620FFF762FE2D
:101CF0000224A7E00620FFF75DFE0125A2E0B9F16E
:101D0000000F08D01899E9B31FFA80FC52460BF176
:101D10000401002060E09BF80410A1B300210BF146
:101D200004004E4B02E05A54401C491C02780AB190
:101D30004029F8D34FF0000C03F801C0614602AB14
:101D4000401C02E05A54401C491C0278202A01D051
:101D50002029F7D303F801C014A91846FFF742FE63
:101D600017986FF4C8310068C84214D918208DF84C
:101D700044004FF480142346012211A93848FFF78C
:101D80000DFA01E02BE010E02346012211A93448AE
:101D9000FFF704FA05241798149901600620FFF74D
:101DA00009FE43203DE045E049E00620FFF702FE42
:101DB00001252F4646E0135C11F80080984509D0B4
:101DC0001820FFF7F7FD1820FFF7F4FD042019B0E5
:101DD000BDE8F08F401C80B26045ECD31EE01FFAD6
:101DE00080F80BF104014FEA58025046009100F0D0
:101DF000A7FE5FEAC87011D00AEB080030F8011D99
:101E0000009AADF854104244C9B212F8012C1143A3
:101E1000ADF85410012215A900F092FE0E9906208B
:101E20008A44FFF7C7FD09F1010000F0FF094FF0F8
:101E3000010807E01820FFF7BDFD182056E74320F2
:101E4000FFF7B8FD55EA04003FF430AF57EA04004D
:101E50003FF428AF2046BAE728050020E804002018
:101E6000500200200907090E002804DB00F1E020E1
:101E700080F80014704700F00F0000F1E02080F8B7
:101E8000141D704702E008C8121F08C1002AFAD1C9
:101E900070477047002001E001C1121F002AFBD1EA
:101EA0007047000070B504460020E070401EE062FC
:101EB000204601F0D9F808B1042070BD04F22E20AC
:101EC00000F06CFF054694F830004AF65526EB28E2
:101ED00003D0E92801D0E8283FD1B54207D1082234
:101EE00021A104F18200FEF786F90028E5D004F173
:101EF0003B0000F053FF94F83D10421E10422CD1DD
:101F00004FF40072904228D3904226D829B3481E3D
:101F1000014222D104F13E0000F040FFE8B194F804
:101F20004000401E012818D804F1410000F036FF9F
:101F300098B104F1430000F031FF802806D204F18B
:101F4000500000F020FFB0F5803F06D304F14600BA
:101F500000F024FF08B1002070BDB54201D102207D
:101F600070BD032070BD0000464154333220202054
:101F7000000000000268490A806A5289B1FBF2F150
:101F8000001D04C81AB1914203D3891AF8E7002052
:101F900070470068084470474269891E921E8A4251
:101FA00001D800207047826A408900FB01207047F9
:101FB0002DE9F04106680F00804606D000F050FE83
:101FC000022809D20120BDE8F081F46814B17069DB
:101FD000A04207D8012405E0411CF4D07169814278
:101FE000F1D83C4630690028EDD0BC4216D170696A
:101FF000651CA84200D802252946404600F030FE64
:102000000128E0D0411CDED038B1F068022805D3A9
:102010007169814202D9044600E0A5B9254670697C
:102020006D1CA84202D80225022C0AD3294640463C
:1020300000F016FE38B10128C5D0411CC3D0A5421E
:10204000EDD10020BFE74FF0FF342246294630464D
:1020500001F023F830B95FB12A463946304601F025
:102060001CF828B1012800D0012425462846AAE7FB
:10207000F560D6E90401891E884201D8401E30610E
:10208000307940F001003071F0E700002DE9F047B1
:10209000894620300F68064620220B21FEF788F87B
:1020A0000025A846082024E07C5D6D1C202C13D957
:1020B0002F2C0CD05C2C0AD02E2C01D0D0451AD35A
:1020C000BAF10B0F22D02E2C20D10FE06D1C785DC1
:1020D0002F28FBD05C28F9D07919C9F80010B8F185
:1020E000000F13D03078E5281ED01FE04FF008080D
:1020F0000B208246D8E7802C03D3124904F07F00DE
:102100000C5C11A02146FEF765F810B10620BDE871
:10211000F087A4F16100192801D8203CE4B206F848
:10212000084008F10108BFE705203070202C02D9D3
:10213000785D202801D8042000E00020F072002003
:10214000E5E70000B83400082A2B2C3A3B3C3D3E22
:102150005B5D7C223F7F00002DE9F0410C46054687
:1021600001F058F9F8B921462846FFF715FF064651
:10217000E86205F130004FF400710446FEF71FF8E5
:10218000A0460127002400E03C446889A04207D90A
:10219000321968783B46414600F052F90028F3D0E6
:1021A0006889A04202D00120BDE8F0810020FBE751
:1021B0002DE9F047066907682036894604464FF046
:1021C0000008B6F5001F35D2A06910B1F10503D0A3
:1021D0003DE00420BDE8F087401CA061616929B1A1
:1021E0007889401E10EA562F05D030E03889B0EBD0
:1021F000561F1FD92BE0204600F032FD054601286E
:102200001DD9681C14D07869A8421AD8B9F1000FFA
:1022100010D020466169FFF7CBFE05000DD0012DDF
:102220000DD0681C04D029463846FFF795FF40B111
:102230000120CFE7C4F81880CBE70720CAE70220C7
:10224000C8E7294638466561FFF7A6FEA061C6F3D8
:102250000800384430302661E0610020BAE770B5EC
:1022600004460E460420256821E0284600F0FCFEC6
:1022700010BBE2691178B1B1D27AE52902F03F02D0
:10228000A2710AD02E2908D00F2A06D022F02001F0
:1022900008290AD00021B14210D000212046FFF7C2
:1022A00087FF20B108E0042006E00121F3E7A169DF
:1022B0000029DAD1002801D00021A16170BD70B5DC
:1022C00004460021066800F03FF80DE03046A169A1
:1022D00000F0CAFE50B9E0690078E52809D040B1A5
:1022E00001212046FFF764FF0028EFD0042807D023
:1022F00007E03046A16900F0B7FE050003D012E008
:10230000072005460FE02021E069FDF758FFE1694D
:10231000206A0860606A4860208D088194F82A006D
:1023200088720120F070284670BD70B505680446BB
:102330008169284600F098FE002804D1E269E52171
:1023400011700121E97070BD2DE9F04107680E465A
:102350000546B1F5001F36D2F00634D12E61AC68C7
:1023600024B93878032805D37C6A1CB178894FEAF0
:10237000402812E03889B0EB561F24D9786A12E061
:10238000284600F06DFC0446401C1AD0022C1AD3DB
:102390007869A04217D9A6EB080646452146EFD238
:1023A0003846FFF7F9FDC5E9054060B100EB56205E
:1023B000A861C6F3080038443030E8610020BDE869
:1023C000F0810120FBE70220F9E701004FF0010056
:1023D00004D0012902D1084600F02AB87047030052
:1023E0004FF0040012D0012B10D1012904D0022992
:1023F00005D0032909D106E04FF4807004E04FF4C2
:102400000070108001E0012010600020704710B5BE
:10241000042458B1012809D15806030CD0020A46F9
:1024200080081946FEF728FF00B10024204610BDA1
:1024300001004FF0010002D0012900D100207047B7
:1024400010B504241BB170B101280CD101E00420A7
:1024500010BD5806030CD0020A4680081946FEF744
:102460001BFF00B10024204610BD38B5044600F023
:10247000BDFA002807D16946204600F0EEFF00288B
:1024800001D10021216038BD2DE9FE4F0D460446E3
:10249000694600F0E2FF070064D1677C002FFBD1A2
:1024A000A06A4FF0020A4FF0010804F12C0B00283B
:1024B0006AD0691C29D0E068A84200D2054665614F
:1024C000002D4FD02046691EFFF754FD0146A06144
:1024D0000098FFF761FD002875D000996D1E4A89AC
:1024E000521E02EA55221518A08AC005E9D0E269F9
:1024F000AA42E6D0207C00063BD548780123594605
:10250000FFF79EFF00286ED12FE002C80191A1685D
:1025100083460225F1B10026AD1C02918946204672
:10252000761C00F09DFB014601284CD9481C5AD06E
:1025300009F101008142F1D00198854206D8CBF81B
:1025400000600BF10400029A04C0834600984069C1
:102550008842E0D8A06A05600198854203D800212E
:10256000CBF8001097E0112795E0207C00F07F0069
:102570002074009801232A4640785946FFF747FF08
:10258000002830D1E56186E0E068A84203D2217CD2
:10259000890700D405464FF000096069C4F814901B
:1025A00005B3009949894E0270B1691EB1FBF6F27C
:1025B000401EB0FBF6F18A4206D3711E884360616B
:1025C0002D1AA1690DE04FE0A16849B9002120460C
:1025D000FFF7EEFC0146012846D0481C55D0A1600B
:1025E000A161D9B927E050E06069AD1B304460615A
:1025F000207C8007204605D5FFF7DAFC010004D1D6
:1026000000250DE000F02CFB0146481C3DD00129BF
:102610002AD900984069884226D9A161B542E3D8F9
:10262000606928446061E80505D00098FFF7B4FCB4
:10263000D0B100EB5529E1686069884204D9E060B7
:10264000217C41F040012174C00524D0E2694A4553
:1026500021D0207C000610D50098012359464078EF
:10266000FFF7EEFE88B904E084F811A00220BDE86F
:10267000FE8F207C00F07F002074009801234A46E2
:1026800040785946FFF7C3FE18B184F81180012045
:10269000EDE7C4F81C903846E9E7000017B581B0B3
:1026A000144602980090684600F03EFB002802DACB
:1026B0000B2004B010BD0A4A002352F8201001B1CB
:1026C0000B70019901B10B7042F820102CB100225F
:1026D00001A902A800F0A2FBEBE70020E9E7000057
:1026E0001C0000202DE9F7438CB005000BD002F050
:1026F0003F06324669460DA800F090FB04004FF0FB
:10270000000804D0C3E009200FB0BDE8F0830098B2
:10271000019001A80D9900F044FA040004D19DF83D
:102720002F00000600D5062416F01C0F4ED04CB129
:10273000042C03D101A8FFF7C2FD044646F00806A9
:102740005CB1A4E09DF80A0010F0110F01D007243D
:102750009DE0700701D5082499E0300745D500F0C9
:10276000DFFA0746089839460E3000F059FD089800
:102770003946163000F054FD0899009800F0F0FA40
:10278000089907462020C87200220899009800F096
:1027900033FD089800211C3000F042FD0099012013
:1027A000C87007B3D1F82C900022394601A800F078
:1027B000E9FC04006BD14946009800F055FC040088
:1027C0000098A7F10107C7600BD060E0D4BB9DF86B
:1027D0000A00C10601D5042459E0B10701D5C0079C
:1027E000B5D1300701D546F040060098C16A29628C
:1027F00008996962089900F0B3FAA86008981C303B
:1028000000F0C1FAC5F82880E860009929600099B5
:1028100005F12C008146C988A9802E7485F81180A5
:10282000C5F81C804FF40071C5F81480FDF7C7FC93
:10283000B0062ED5EE6866B36E610098A96840892F
:1028400047020FE023E0284600F00AFA014601287B
:1028500000D80224481C02D0F61B1CB104E001245D
:10286000F61B01E0BE42EED8A96184B9F00510D094
:102870000098FFF791FB70B100EB5622EA610098D7
:10288000012349464078FFF7C2FD10B10124C5F885
:102890000080204638E70224F9E72DE9FE4F8846FC
:1028A0000021196099461546044602A900F0D5FD9D
:1028B000002812D1607C00280FD1207CC0070BD0EB
:1028C000E16860690127081A4FF0020A04F12C0B35
:1028D000854200D9054684E00720BDE8FE8F616986
:1028E000C80566D102984089401E10EA512611D1D0
:1028F00029B1A06A28B12046FFF73CFB05E0A0689B
:1029000003E02046A16900F0ABF902281BD3411C6B
:102910004AD0A061A1690298FFF73EFB98B130440C
:102920000190680A009025D00299321848898242A5
:1029300001D9801B0090DDE9003248784146FFF75D
:1029400066FD88BB03E084F811A00220C5E7207C67
:1029500000060CD5E1690198081A0099884206D250
:1029600008EB40204FF400725946FDF70FFC009829
:1029700046022CE0E2690198824218D0207C0006D1
:102980000AD50298012359464078FFF759FD58B9F6
:10299000207C00F07F002074029801235946407883
:1029A000019AFFF734FD10B16774012095E7019893
:1029B000E061A08AC0F30800C0F50076AE4200D9FD
:1029C0002E460119324640462C31FDF7DFFBD9F87F
:1029D0000000AD1B8119C9F800106069B044304493
:1029E0006061002D7FF47BAF002076E7F8B50446E8
:1029F000694600F032FD00280ED1217C4A060BD535
:102A000008060ED50098E2690123407804F12C01F4
:102A1000FFF716FD08B10120F8BD207C00F07F0013
:102A2000207400F07DF90646216A009800F01CFB36
:102A30000028F1D1656A2946E87A40F02000E87262
:102A4000A268206800F0D8FB05F11C00E16800F0E6
:102A5000E7FB314605F1160000F0E2FB002105F12D
:102A6000120000F0E5FB00980121C17000F090FC1D
:102A7000217C01F0BF012174F8BD11B599B002228B
:102A80000BA919A800F0CAF900280CD10B980090E6
:102A90006846199900F085F8002804D19DF82B00AC
:102AA000000602D506201AB010BD9DF80600C0072A
:102AB00001D00720F7E707990B9800F051F9044679
:102AC0009DF80600C00610D50B980D9000210F94BC
:102AD0000DA8FFF739FC0028E5D100210DA8FFF76C
:102AE000BEFB0028E5D00428DDD16846FFF71DFCB9
:102AF0000028D8D134B100222146684600F042FBBC
:102B00000028D0D10B9800F043FCCCE710B5A0F121
:102B1000006086B0C40AFDF783FD0020009001200C
:102B200001900390C00600EBC420029004A96846FF
:102B3000FDF7D8FCFDF72AFD06B010BD0068704710
:102B40002DE9F04116460F460546FDF769FD0024C4
:102B500012E0680506D1FDF719FD2846FFF7D6FFFC
:102B6000FDF75EFD37F81420002329460120FDF70C
:102B700017FD641CA4B2AD1CB442EAD3BDE8F04119
:102B8000FDF704BD70B50C460546FDF749FD22462C
:102B9000002329460220FDF703FDBDE87040FDF744
:102BA000F5BC2DE9F34105460668019801E0401C9B
:102BB000019001782F29FAD05C29F8D00020A86074
:102BC00001980078202808D2802085F82B00002169
:102BD0002846FFF7B9FBBDE8FC8101A92846FFF7AD
:102BE00055FA0028F7D1002128462F68FFF7ACFBE3
:102BF000E0B93846A96900F037FA040015D1E86950
:102C00000178E1B1C17A01F03F02AA71C17A0907E6
:102C100005D40B2205F12001FDF7EDFA28B10021C2
:102C20002846FFF7C5FA0400E3D0204695F82B109C
:102C300038B10428CFD14907CDD40520CBE70424EF
:102C4000F3E74907C7D4A879C006F6D5288AC0F3A8
:102C5000080081193046303100F082F8A860BCE7E6
:102C60002DE9F04104680D4602290BD36069A842A2
:102C700008D920784FF0FF36012807D002282BD042
:102C8000032839D001263046BDE8F081206A05EBE3
:102C9000550700EB5721204600F0E6F90028F2D155
:102CA000C7F3080020447F1C90F83080206A00EBB6
:102CB0005721204600F0D8F90028E4D1C7F30800D6
:102CC000204490F8301048EA0120E90701D00609B5
:102CD000D9E7C0F30B06D6E7206A00EB15212046A2
:102CE00000F0C2F90028CED1E8B204EB4000303049
:102CF00000F054F80646C6E7206A00EBD5112046DE
:102D000000F0B2F90028BED140F2FF1000EA8500C1
:102D10002044303000F037F820F07046B3E7000070
:102D2000004870472108215210B504464FF0FF308B
:102D300021680A0011D000BF11F8013B212B0DD3EF
:102D40003A2BF9D11378303B092B06D8921C8A42D2
:102D500003D1022B01DA1846216010BD002010BDFE
:102D600070B506460D4601F11A0000F017F804464A
:102D70003078032805D105F1140000F00FF844EA7B
:102D80000044204670BDC178827842EA0121427831
:102D9000007842EA012140EA01207047417800783A
:102DA00040EA012070470000FDF7FCFDFEF778FEC9
:102DB000FEF7A8FBFEF7D8FB04211148FDF7DEFD66
:102DC00010B1FEF7EDFB08E01020FEF763FB20B129
:102DD0001020FEF76AFBFEF775FBFDF7A3FAFEF77E
:102DE000CDFAFEF78FFBFEF7BFFB42F2107405A190
:102DF0000320FEF785FE2046FDF762FBF7E70000A3
:102E0000000C0140426F6F744C6F61646572206604
:102E100061696C2E2E2E2121210000002DE9FF4139
:102E2000002790460E460F60FFF77EFF050003D592
:102E30000B2004B0BDE8F081874850F825409CB1D4
:102E40003460207808F0FE0620B16078FFF7F0FAD1
:102E5000C1070BD02770E8B2B8466070FFF7B5FA2B
:102E6000C10708D00320E4E70C20E2E70EB14007D9
:102E700004D40020DDE71EB1400701D50A20D8E7C1
:102E800000212046FFF70EF802281AD100256E46D1
:102E900004EB051000F5FB70FFF775FF46F8250001
:102EA0006D1C042DF4D3002556F8251029B12046B9
:102EB000FEF7F8FF022801D203E003206D1C042D69
:102EC000F2D304280AD0022874D204F13B00E76A46
:102ED000FFF764FFB0F5007F6CD101E00120A8E7A7
:102EE00004F14600FFF75AFF18B904F15400FFF748
:102EF0004AFFA06194F84060A670012E01D0022E16
:102F000058D1464394F83D006081B0B3411E084259
:102F100050D104F14100FFF741FF2081000749D162
:102F200004F14300FFF73AFF050004D104F150001B
:102F3000FFF729FF054604F13E00FFF72FFF0100D0
:102F400038D02389881900EB1312954232D3A81A7E
:102F50006589B0FBF5F080B1DFF800C10025604560
:102F600000D803254FF6F57C604500D8022540F6D1
:102F7000F57C604502D8012501E01BE0D5B1801C3D
:102F80003A44A26239446061C4E90771032D13D049
:102F900083B131446162022D1FD000F0010100EBCA
:102FA000400001EB500000BFA16900F2FF10B1EB3F
:102FB000502F14D20D203CE704F15A00FFF7EEFE2B
:102FC0000028F7D120890028F4D104F15C00FFF734
:102FD000DAFE606260698000E6E74000E4E74FF0F7
:102FE000FF302061E06080202071032D2CD104F19E
:102FF0006000FFF7D3FE012826D1791C204600F09F
:1030000033F808BB84F8048004F22E20FFF7C6FED4
:10301000A0F52A41553917D104F13000FFF7B3FE6E
:103020000F49884210D104F50570FFF7ACFE0D4939
:10303000884209D104F50670FFF7A5FE206104F56A
:103040000770FFF7A0FEE06003492570091F08889C
:10305000401C0880E0800CE71C000020F5FFFF0FFB
:10306000525261417272416170B50446C06A0D46A8
:103070000026A8420FD0204600F0CCF906000AD165
:10308000607801232A4604F13001FFF7C0F908B146
:10309000751E0126E562304670BD2DE9F047022617
:1030A00017460D460446022969D36069A84266D9CD
:1030B00020784FF00109012804D0022836D00328D7
:1030C0005DD143E0216A05EB550801EB582120460C
:1030D000FFF7CAFF060052D1C8F308002044303081
:1030E00008F10108E90704D00178FAB262F31F1170
:1030F00000E03946017084F80390216A204601EB14
:103100005821FFF7B1FF060039D1C8F30800204469
:103110003030E90702D0C7F3071105E00178C7F3A3
:10312000032201F0F0011143017026E0206A00EB58
:1031300015212046FFF798FF060020D1E8B204EBE6
:103140004000B9B2303000F073F816E0206A00EBAE
:10315000D5112046FFF788FF060010D140F2FF107E
:1031600000EA8500204430300546FFF70CFE67F387
:103170001B000146284600F053F884F803903046BF
:10318000BDE8F0872DE9F041056813460E46074675
:1031900002292DD36869B0422AD93BB14FF0FF32E2
:1031A00019462846FFF779FF00281FD131463846D7
:1031B000FFF756FD040018D0012C19D0601C19D05F
:1031C000002231462846FFF768FF00280ED1D5E9D6
:1031D0000410821E914205D2491C2961297941F0CF
:1031E000010129712646B042E0D80020BDE8F081F7
:1031F0000220FBE70120F9E770B50C4606461546AC
:1032000091B204F11A0000F013F83078032806D1C7
:10321000290C04F11400BDE8704000F009B870BD3D
:103220000170090A4170090A8170090AC17070476A
:103230000170090A417070472DE9F04116460F46AA
:103240000546002407E0284600F00AF827F8140095
:10325000641CA4B2AD1CB442F5D3BDE8F0810000FB
:103260000149405A704700000000040801494058D5
:1032700070470000000004082DE9F04F8046154615
:1032800000EB4500ADF6140D8A46B0F5802F5DD2F7
:10329000C8F34906C6F580644FEAD827A54200D88E
:1032A0001446E946F80283464FF480626946FFF708
:1032B000C3FF00204FF6FF7106E0331839F81320E2
:1032C0008A4203D1401C80B2A042F6D3A04239D238
:1032D000FDF7A6F90020CDF800080120CDF804087C
:1032E000CDF80C081B480DF5016100EBC720CDF8A7
:1032F00008080DF50060FDF7F5F8FDF747F9002027
:10330000494606E03AF810208319401C21F81320A2
:1033100080B2A042F6D358464FF480624FEA0D01C6
:1033200000F01AF8A54211D0281B0AEB440A08EB5A
:103330004408002685B24FF480647F1CA542B1D8B2
:103340002C46AFE7224651464046E9E70DF6140DFC
:10335000BDE8F08F000004082DE9F0410F460B494D
:1033600016464518FDF75CF9002409E037F81420EB
:10337000002329460120FDF713F9641CA4B2AD1CFB
:10338000B442F3D3BDE8F041FDF700B900000408F2
:1033900070B5044600F03EF8050035D120780328CA
:1033A0002BD12079012828D1410204F130000646B2
:1033B000FCF705FF4AF6552104F22E20FFF738FFEF
:1033C00012493046FFF72CFF114904F50570FFF74D
:1033D00027FF04F506702169FFF722FF04F5077047
:1033E000E168FFF71DFFE2690123521CE262607889
:1033F0003146FFF725F80020207100226078114641
:10340000FEF7EDFF00B10125284670BD5252614123
:103410007272416170B50446C078002548B104F16C
:103420003001607801230E46E26AFFF709F810B117
:103430000125284670BD0020E070E16A206A0A1A62
:10344000A0698242F5D2A278022AF2D10A186078E5
:1034500001233146FEF7F4FFEBE770B50E4604009A
:103460004FF009050CD0206850B1017841B1A18816
:10347000C288914204D14078FEF7DAFFC00703D03A
:1034800000203060284670BD00252068F9E7010261
:1034900002030405060708090A0B0C0D0E0F101095
:1034A00000000000000000000102030406070809F4
:1034B0000000000001020304809A45418E418F8084
:1034C0004545454949498E8F9092924F994F5555A0
:1034D00059999A9B9C9D9E9F41494F55A5A5A6A78A
:1034E000A8A9AAABACADAEAFB0B1B2B3B4B5B6B7E4
:1034F000B8B9BABBBCBDBEBFC0C1C2C3C4C5C6C7D4
:10350000C8C9CACBCCCDCECFD0D1D2D3D4D5D6D7C3
:10351000D8D9DADBDCDDDEDFE0E1E2E3E4E5E6E7B3
:10352000E8E9EAEBECEDEEEFF0F1F2F3F4F5F6F7A3
:10353000F8F9FAFBFCFDFEFF2020446F776E6C6FFC
:103540006164206669726D77617265202D2D2D2D65
:103550002D2D2D2D2D2D2D2D2D2D2D2D2D2D2D2D9B
:103560002D2D2D2D2D2D2D2D2D2D2D2D2D2D2D2D8B
:103570002D2D2D2D2D2D20310D0A0A0020205361D7
:1035800076652063757272656E74206669726D77F8
:10359000617265202D2D2D2D2D2D2D2D2D2D2D2DB7
:1035A0002D2D2D2D2D2D2D2D2D2D2D2D2D2D2D2D4B
:1035B0002D2D2D2D2D2D2D2D2D2D20320D0A0A00D6
:1035C00020204C6F6164206F6C64206669726D7797
:1035D000617265202D2D2D2D2D2D2D2D2D2D2D2D77
:1035E0002D2D2D2D2D2D2D2D2D2D2D2D2D2D2D2D0B
:1035F0002D2D2D2D2D2D2D2D2D2D2D2D2D2D203302
:103600000D0A0A00202045786974202D2D2D2D2DBE
:103610002D2D2D2D2D2D2D2D2D2D2D2D2D2D2D2DDA
:103620002D2D2D2D2D2D2D2D2D2D2D2D2D2D2D2DCA
:103630002D2D2D2D2D2D2D2D2D2D2D2D2D2D2D2DBA
:103640002D2D20340D0A0A000D0A3D3D3D3D3D3D26
:103650003D3D3D3D3D3D3D3D3D3D3D3D3D3D3D3D9A
:103660003D3D3D3D3D3D204D61696E204D656E7592
:10367000203D3D3D3D3D3D3D3D3D3D3D3D3D3D3D97
:103680003D3D3D3D3D3D3D3D3D3D3D3D3D0D0A0A00
:10369000000000000A0A0D2050726F6772616D6DA4
:1036A000696E6720436F6D706C6574656420537537
:1036B000636365737366756C6C79210A0D2D2D2D0E
:1036C0002D2D2D2D2D2D2D2D2D2D2D2D2D2D2D2D2A
:1036D0002D2D2D2D2D2D2D2D2D2D2D2D2D0D0A206A
:1036E0004E616D653A2000000D0A3D20202020200B
:1036F00020202020202020202020202020202020CA
:1037000020202020202020202020202020202020B9
:1037100020202020202020202020202020202020A9
:103720002020202020202020202020202020203D7C
:10373000000000000D0A3D20202020202020202015
:1037400020202020205061636520616E64204C6F32
:103750007665204B6579626F617264657220426F95
:103760006F746C6F616465722020202020202020FF
:1037700020202020202020202020203D00000000AC
:103780000D0A3D2020202020202020202020202045
:103790002020202020202020202020202020202029
:1037A000202020202020202020202020204279209E
:1037B0004D6172737061636563726166742020206D
:1037C000202020202020203D000000000D0A3D2068
:1037D00020202020202020202020202020202020E9
:1037E00020202020202020202020202020202020D9
:1037F000202020202020202020426F6F746C6F61D9
:103800006465722856657273696F6E20312E302E92
:103810003029203D000000000D0A3D3D3D3D3D3D6D
:103820003D3D3D3D3D3D3D3D3D3D3D3D3D3D3D3DC8
:103830003D3D3D3D3D3D3D3D3D3D3D3D3D3D3D3DB8
:103840003D3D3D3D3D3D3D3D3D3D3D3D3D3D3D3DA8
:103850003D3D3D3D3D3D3D3D3D3D3D3D3D3D3D3D98
:10386000000000000D0A3D3D3D3D3D3D3D3D3D3DDF
:103870003D3D3D3D3D3D3D3D3D3D3D3D3D3D3D3D78
:103880003D3D3D457869743D3D3D3D3D3D3D3D3DC2
:103890003D3D3D3D3D3D3D3D3D3D3D3D3D3D3D3D58
:1038A0003D3D3D3D3D3D3D3D3D3D3D3D000000003C
:1038B000D03800080000002024000000841E00080A
:1038C000F4380008240000200C0D0000941E0008AD
:1038D00000000000010000001000000000000000D7
:1038E0000024F400020000000000000000000000BE
:0438F00000000000D4
:0400000508000131BD
:00000001FF
